{
  "_format": "hh-sol-artifact-1",
  "contractName": "SealerStatement",
  "sourceName": "contracts/SealerStatement.sol",
  "abi": [
    {
      "inputs": [
        {
          "internalType": "address",
          "name": "initialOwner",
          "type": "address"
        }
      ],
      "stateMutability": "nonpayable",
      "type": "constructor"
    },
    {
      "inputs": [
        {
          "internalType": "address",
          "name": "sender",
          "type": "address"
        },
        {
          "internalType": "uint256",
          "name": "tokenId",
          "type": "uint256"
        },
        {
          "internalType": "address",
          "name": "owner",
          "type": "address"
        }
      ],
      "name": "ERC721IncorrectOwner",
      "type": "error"
    },
    {
      "inputs": [
        {
          "internalType": "address",
          "name": "operator",
          "type": "address"
        },
        {
          "internalType": "uint256",
          "name": "tokenId",
          "type": "uint256"
        }
      ],
      "name": "ERC721InsufficientApproval",
      "type": "error"
    },
    {
      "inputs": [
        {
          "internalType": "address",
          "name": "approver",
          "type": "address"
        }
      ],
      "name": "ERC721InvalidApprover",
      "type": "error"
    },
    {
      "inputs": [
        {
          "internalType": "address",
          "name": "operator",
          "type": "address"
        }
      ],
      "name": "ERC721InvalidOperator",
      "type": "error"
    },
    {
      "inputs": [
        {
          "internalType": "address",
          "name": "owner",
          "type": "address"
        }
      ],
      "name": "ERC721InvalidOwner",
      "type": "error"
    },
    {
      "inputs": [
        {
          "internalType": "address",
          "name": "receiver",
          "type": "address"
        }
      ],
      "name": "ERC721InvalidReceiver",
      "type": "error"
    },
    {
      "inputs": [
        {
          "internalType": "address",
          "name": "sender",
          "type": "address"
        }
      ],
      "name": "ERC721InvalidSender",
      "type": "error"
    },
    {
      "inputs": [
        {
          "internalType": "uint256",
          "name": "tokenId",
          "type": "uint256"
        }
      ],
      "name": "ERC721NonexistentToken",
      "type": "error"
    },
    {
      "inputs": [
        {
          "internalType": "address",
          "name": "owner",
          "type": "address"
        }
      ],
      "name": "OwnableInvalidOwner",
      "type": "error"
    },
    {
      "inputs": [
        {
          "internalType": "address",
          "name": "account",
          "type": "address"
        }
      ],
      "name": "OwnableUnauthorizedAccount",
      "type": "error"
    },
    {
      "anonymous": false,
      "inputs": [
        {
          "indexed": true,
          "internalType": "address",
          "name": "owner",
          "type": "address"
        },
        {
          "indexed": true,
          "internalType": "address",
          "name": "approved",
          "type": "address"
        },
        {
          "indexed": true,
          "internalType": "uint256",
          "name": "tokenId",
          "type": "uint256"
        }
      ],
      "name": "Approval",
      "type": "event"
    },
    {
      "anonymous": false,
      "inputs": [
        {
          "indexed": true,
          "internalType": "address",
          "name": "owner",
          "type": "address"
        },
        {
          "indexed": true,
          "internalType": "address",
          "name": "operator",
          "type": "address"
        },
        {
          "indexed": false,
          "internalType": "bool",
          "name": "approved",
          "type": "bool"
        }
      ],
      "name": "ApprovalForAll",
      "type": "event"
    },
    {
      "anonymous": false,
      "inputs": [
        {
          "indexed": false,
          "internalType": "uint256",
          "name": "_fromTokenId",
          "type": "uint256"
        },
        {
          "indexed": false,
          "internalType": "uint256",
          "name": "_toTokenId",
          "type": "uint256"
        }
      ],
      "name": "BatchMetadataUpdate",
      "type": "event"
    },
    {
      "anonymous": false,
      "inputs": [
        {
          "indexed": false,
          "internalType": "uint256",
          "name": "_tokenId",
          "type": "uint256"
        }
      ],
      "name": "MetadataUpdate",
      "type": "event"
    },
    {
      "anonymous": false,
      "inputs": [
        {
          "indexed": true,
          "internalType": "address",
          "name": "previousOwner",
          "type": "address"
        },
        {
          "indexed": true,
          "internalType": "address",
          "name": "newOwner",
          "type": "address"
        }
      ],
      "name": "OwnershipTransferred",
      "type": "event"
    },
    {
      "anonymous": false,
      "inputs": [
        {
          "indexed": true,
          "internalType": "uint256",
          "name": "tokenId",
          "type": "uint256"
        },
        {
          "indexed": true,
          "internalType": "address",
          "name": "recipient",
          "type": "address"
        },
        {
          "indexed": false,
          "internalType": "uint8",
          "name": "productType",
          "type": "uint8"
        },
        {
          "indexed": false,
          "internalType": "string",
          "name": "attestationTxHash",
          "type": "string"
        },
        {
          "indexed": false,
          "internalType": "string",
          "name": "tokenURI",
          "type": "string"
        }
      ],
      "name": "StatementMinted",
      "type": "event"
    },
    {
      "anonymous": false,
      "inputs": [
        {
          "indexed": true,
          "internalType": "address",
          "name": "from",
          "type": "address"
        },
        {
          "indexed": true,
          "internalType": "address",
          "name": "to",
          "type": "address"
        },
        {
          "indexed": true,
          "internalType": "uint256",
          "name": "tokenId",
          "type": "uint256"
        }
      ],
      "name": "Transfer",
      "type": "event"
    },
    {
      "inputs": [
        {
          "internalType": "address",
          "name": "to",
          "type": "address"
        },
        {
          "internalType": "uint256",
          "name": "tokenId",
          "type": "uint256"
        }
      ],
      "name": "approve",
      "outputs": [],
      "stateMutability": "nonpayable",
      "type": "function"
    },
    {
      "inputs": [
        {
          "internalType": "uint256",
          "name": "",
          "type": "uint256"
        }
      ],
      "name": "attestationTxHash",
      "outputs": [
        {
          "internalType": "string",
          "name": "",
          "type": "string"
        }
      ],
      "stateMutability": "view",
      "type": "function"
    },
    {
      "inputs": [
        {
          "internalType": "address",
          "name": "owner",
          "type": "address"
        }
      ],
      "name": "balanceOf",
      "outputs": [
        {
          "internalType": "uint256",
          "name": "",
          "type": "uint256"
        }
      ],
      "stateMutability": "view",
      "type": "function"
    },
    {
      "inputs": [
        {
          "internalType": "uint256",
          "name": "tokenId",
          "type": "uint256"
        }
      ],
      "name": "getApproved",
      "outputs": [
        {
          "internalType": "address",
          "name": "",
          "type": "address"
        }
      ],
      "stateMutability": "view",
      "type": "function"
    },
    {
      "inputs": [
        {
          "internalType": "address",
          "name": "owner",
          "type": "address"
        },
        {
          "internalType": "address",
          "name": "operator",
          "type": "address"
        }
      ],
      "name": "isApprovedForAll",
      "outputs": [
        {
          "internalType": "bool",
          "name": "",
          "type": "bool"
        }
      ],
      "stateMutability": "view",
      "type": "function"
    },
    {
      "inputs": [
        {
          "internalType": "address",
          "name": "recipient",
          "type": "address"
        },
        {
          "internalType": "string",
          "name": "uri",
          "type": "string"
        },
        {
          "internalType": "uint8",
          "name": "_productType",
          "type": "uint8"
        },
        {
          "internalType": "string",
          "name": "_attestationTx",
          "type": "string"
        }
      ],
      "name": "mint",
      "outputs": [
        {
          "internalType": "uint256",
          "name": "",
          "type": "uint256"
        }
      ],
      "stateMutability": "nonpayable",
      "type": "function"
    },
    {
      "inputs": [],
      "name": "name",
      "outputs": [
        {
          "internalType": "string",
          "name": "",
          "type": "string"
        }
      ],
      "stateMutability": "view",
      "type": "function"
    },
    {
      "inputs": [
        {
          "internalType": "uint256",
          "name": "",
          "type": "uint256"
        }
      ],
      "name": "originalRecipient",
      "outputs": [
        {
          "internalType": "address",
          "name": "",
          "type": "address"
        }
      ],
      "stateMutability": "view",
      "type": "function"
    },
    {
      "inputs": [],
      "name": "owner",
      "outputs": [
        {
          "internalType": "address",
          "name": "",
          "type": "address"
        }
      ],
      "stateMutability": "view",
      "type": "function"
    },
    {
      "inputs": [
        {
          "internalType": "uint256",
          "name": "tokenId",
          "type": "uint256"
        }
      ],
      "name": "ownerOf",
      "outputs": [
        {
          "internalType": "address",
          "name": "",
          "type": "address"
        }
      ],
      "stateMutability": "view",
      "type": "function"
    },
    {
      "inputs": [
        {
          "internalType": "uint256",
          "name": "",
          "type": "uint256"
        }
      ],
      "name": "productType",
      "outputs": [
        {
          "internalType": "uint8",
          "name": "",
          "type": "uint8"
        }
      ],
      "stateMutability": "view",
      "type": "function"
    },
    {
      "inputs": [],
      "name": "renounceOwnership",
      "outputs": [],
      "stateMutability": "nonpayable",
      "type": "function"
    },
    {
      "inputs": [
        {
          "internalType": "address",
          "name": "from",
          "type": "address"
        },
        {
          "internalType": "address",
          "name": "to",
          "type": "address"
        },
        {
          "internalType": "uint256",
          "name": "tokenId",
          "type": "uint256"
        }
      ],
      "name": "safeTransferFrom",
      "outputs": [],
      "stateMutability": "nonpayable",
      "type": "function"
    },
    {
      "inputs": [
        {
          "internalType": "address",
          "name": "from",
          "type": "address"
        },
        {
          "internalType": "address",
          "name": "to",
          "type": "address"
        },
        {
          "internalType": "uint256",
          "name": "tokenId",
          "type": "uint256"
        },
        {
          "internalType": "bytes",
          "name": "data",
          "type": "bytes"
        }
      ],
      "name": "safeTransferFrom",
      "outputs": [],
      "stateMutability": "nonpayable",
      "type": "function"
    },
    {
      "inputs": [
        {
          "internalType": "address",
          "name": "operator",
          "type": "address"
        },
        {
          "internalType": "bool",
          "name": "approved",
          "type": "bool"
        }
      ],
      "name": "setApprovalForAll",
      "outputs": [],
      "stateMutability": "nonpayable",
      "type": "function"
    },
    {
      "inputs": [
        {
          "internalType": "bytes4",
          "name": "interfaceId",
          "type": "bytes4"
        }
      ],
      "name": "supportsInterface",
      "outputs": [
        {
          "internalType": "bool",
          "name": "",
          "type": "bool"
        }
      ],
      "stateMutability": "view",
      "type": "function"
    },
    {
      "inputs": [],
      "name": "symbol",
      "outputs": [
        {
          "internalType": "string",
          "name": "",
          "type": "string"
        }
      ],
      "stateMutability": "view",
      "type": "function"
    },
    {
      "inputs": [
        {
          "internalType": "uint256",
          "name": "tokenId",
          "type": "uint256"
        }
      ],
      "name": "tokenURI",
      "outputs": [
        {
          "internalType": "string",
          "name": "",
          "type": "string"
        }
      ],
      "stateMutability": "view",
      "type": "function"
    },
    {
      "inputs": [],
      "name": "totalSupply",
      "outputs": [
        {
          "internalType": "uint256",
          "name": "",
          "type": "uint256"
        }
      ],
      "stateMutability": "view",
      "type": "function"
    },
    {
      "inputs": [
        {
          "internalType": "address",
          "name": "from",
          "type": "address"
        },
        {
          "internalType": "address",
          "name": "to",
          "type": "address"
        },
        {
          "internalType": "uint256",
          "name": "tokenId",
          "type": "uint256"
        }
      ],
      "name": "transferFrom",
      "outputs": [],
      "stateMutability": "nonpayable",
      "type": "function"
    },
    {
      "inputs": [
        {
          "internalType": "address",
          "name": "newOwner",
          "type": "address"
        }
      ],
      "name": "transferOwnership",
      "outputs": [],
      "stateMutability": "nonpayable",
      "type": "function"
    }
  ],
  "bytecode": "0x608060405234801561000f575f5ffd5b50604051611aa7380380611aa783398101604081905261002e91610121565b806040518060400160405280601081526020016f14d9585b195c8814dd185d195b595b9d60821b8152506040518060400160405280600481526020016314d5135560e21b815250815f908161008391906101e6565b50600161009082826101e6565b5050506001600160a01b0381166100c057604051631e4fbdf760e01b81525f600482015260240160405180910390fd5b6100c9816100d0565b50506102a0565b600780546001600160a01b038381166001600160a01b0319831681179093556040519116919082907f8be0079c531659141344cd1fd0a4f28419497f9722a3daafe3b4186f6b6457e0905f90a35050565b5f60208284031215610131575f5ffd5b81516001600160a01b0381168114610147575f5ffd5b9392505050565b634e487b7160e01b5f52604160045260245ffd5b600181811c9082168061017657607f821691505b60208210810361019457634e487b7160e01b5f52602260045260245ffd5b50919050565b601f8211156101e157805f5260205f20601f840160051c810160208510156101bf5750805b601f840160051c820191505b818110156101de575f81556001016101cb565b50505b505050565b81516001600160401b038111156101ff576101ff61014e565b6102138161020d8454610162565b8461019a565b6020601f821160018114610245575f831561022e5750848201515b5f19600385901b1c1916600184901b1784556101de565b5f84815260208120601f198516915b828110156102745787850151825560209485019460019092019101610254565b508482101561029157868401515f19600387901b60f8161c191681555b50505050600190811b01905550565b6117fa806102ad5f395ff3fe608060405234801561000f575f5ffd5b5060043610610132575f3560e01c8063715018a6116100b4578063b88d4fde11610079578063b88d4fde1461028c578063bfe0b25d1461029f578063c87b56dd146102b2578063e764dccc146102c5578063e985e9c5146102ed578063f2fde38b14610300575f5ffd5b8063715018a6146102245780638da5cb5b1461022c57806395d89b411461023d578063a22cb46514610245578063a774532414610258575f5ffd5b806323b872dd116100fa57806323b872dd146101c557806342842e0e146101d85780636352211e146101eb5780636b0f9d86146101fe57806370a0823114610211575f5ffd5b806301ffc9a71461013657806306fdde031461015e578063081812fc14610173578063095ea7b31461019e57806318160ddd146101b3575b5f5ffd5b61014961014436600461118b565b610313565b60405190151581526020015b60405180910390f35b61016661033d565b60405161015591906111d4565b6101866101813660046111e6565b6103cc565b6040516001600160a01b039091168152602001610155565b6101b16101ac366004611218565b6103f3565b005b6008545b604051908152602001610155565b6101b16101d3366004611240565b610402565b6101b16101e6366004611240565b610490565b6101866101f93660046111e6565b6104af565b6101b761020c3660046112bf565b6104b9565b6101b761021f366004611356565b6105c8565b6101b161060d565b6007546001600160a01b0316610186565b610166610620565b6101b161025336600461136f565b61062f565b61027a6102663660046111e6565b60096020525f908152604090205460ff1681565b60405160ff9091168152602001610155565b6101b161029a3660046113bc565b61063a565b6101666102ad3660046111e6565b610652565b6101666102c03660046111e6565b6106e9565b6101866102d33660046111e6565b600b6020525f90815260409020546001600160a01b031681565b6101496102fb366004611499565b61076a565b6101b161030e366004611356565b610797565b5f6001600160e01b03198216632483248360e11b14806103375750610337826107d4565b92915050565b60605f805461034b906114ca565b80601f0160208091040260200160405190810160405280929190818152602001828054610377906114ca565b80156103c25780601f10610399576101008083540402835291602001916103c2565b820191905f5260205f20905b8154815290600101906020018083116103a557829003601f168201915b5050505050905090565b5f6103d682610823565b505f828152600460205260409020546001600160a01b0316610337565b6103fe82823361085b565b5050565b6001600160a01b03821661043057604051633250574960e11b81525f60048201526024015b60405180910390fd5b5f61043c838333610868565b9050836001600160a01b0316816001600160a01b03161461048a576040516364283d7b60e01b81526001600160a01b0380861660048301526024820184905282166044820152606401610427565b50505050565b6104aa83838360405180602001604052805f81525061063a565b505050565b5f61033782610823565b5f6104c26108f7565b600880545f91826104d283611502565b9190505590506104e28882610924565b6105218188888080601f0160208091040260200160405190810160405280939291908181526020018383808284375f9201919091525061093d92505050565b5f818152600960209081526040808320805460ff191660ff8a16179055600a909152902061055084868361156a565b505f818152600b60205260409081902080546001600160a01b0319166001600160a01b038b16908117909155905182907f857ca1c389874637bd29ee39991f5b00e6c4cd2e45accae3a853cac88d757297906105b5908990899089908e908e9061164c565b60405180910390a3979650505050505050565b5f6001600160a01b0382166105f2576040516322718ad960e21b81525f6004820152602401610427565b506001600160a01b03165f9081526003602052604090205490565b6106156108f7565b61061e5f61098c565b565b60606001805461034b906114ca565b6103fe3383836109dd565b610645848484610402565b61048a3385858585610aa4565b600a6020525f90815260409020805461066a906114ca565b80601f0160208091040260200160405190810160405280929190818152602001828054610696906114ca565b80156106e15780601f106106b8576101008083540402835291602001916106e1565b820191905f5260205f20905b8154815290600101906020018083116106c457829003601f168201915b505050505081565b60606106f482610823565b505f61070a60408051602081019091525f815290565b90505f61071684610bcc565b905081515f03610727579392505050565b80511561075957818160405160200161074192919061169e565b60405160208183030381529060405292505050919050565b61076284610c6b565b949350505050565b6001600160a01b039182165f90815260056020908152604080832093909416825291909152205460ff1690565b61079f6108f7565b6001600160a01b0381166107c857604051631e4fbdf760e01b81525f6004820152602401610427565b6107d18161098c565b50565b5f6001600160e01b031982166380ac58cd60e01b148061080457506001600160e01b03198216635b5e139f60e01b145b8061033757506301ffc9a760e01b6001600160e01b0319831614610337565b5f818152600260205260408120546001600160a01b03168061033757604051637e27328960e01b815260048101849052602401610427565b6104aa8383836001610cdc565b5f828152600260205260408120546001600160a01b031680156108e35760405162461bcd60e51b815260206004820152602d60248201527f5365616c657253746174656d656e743a20736f756c626f756e64202d206e6f6e60448201526c2d7472616e7366657261626c6560981b6064820152608401610427565b6108ee858585610de0565b95945050505050565b6007546001600160a01b0316331461061e5760405163118cdaa760e01b8152336004820152602401610427565b6103fe828260405180602001604052805f815250610ed2565b5f82815260066020526040902061095482826116b2565b506040518281527ff8e1a15aba9398e019f0b49df1a4fde98ee17ae345cb5f6b5e2c27f5033e8ce79060200160405180910390a15050565b600780546001600160a01b038381166001600160a01b0319831681179093556040519116919082907f8be0079c531659141344cd1fd0a4f28419497f9722a3daafe3b4186f6b6457e0905f90a35050565b6001600160a01b038316610a065760405163a9fbf51f60e01b81525f6004820152602401610427565b6001600160a01b038216610a3857604051630b61174360e31b81526001600160a01b0383166004820152602401610427565b6001600160a01b038381165f81815260056020908152604080832094871680845294825291829020805460ff191686151590811790915591519182527f17307eab39ab6107e8899845ad3d59bd9653f200f220920489ca2b5937696c31910160405180910390a3505050565b6001600160a01b0383163b15610bc557604051630a85bd0160e11b81526001600160a01b0384169063150b7a0290610ae690889088908790879060040161176d565b6020604051808303815f875af1925050508015610b20575060408051601f3d908101601f19168201909252610b1d918101906117a9565b60015b610b87573d808015610b4d576040519150601f19603f3d011682016040523d82523d5f602084013e610b52565b606091505b5080515f03610b7f57604051633250574960e11b81526001600160a01b0385166004820152602401610427565b805160208201fd5b6001600160e01b03198116630a85bd0160e11b14610bc357604051633250574960e11b81526001600160a01b0385166004820152602401610427565b505b5050505050565b5f818152600660205260409020805460609190610be8906114ca565b80601f0160208091040260200160405190810160405280929190818152602001828054610c14906114ca565b8015610c5f5780601f10610c3657610100808354040283529160200191610c5f565b820191905f5260205f20905b815481529060010190602001808311610c4257829003601f168201915b50505050509050919050565b6060610c7682610823565b505f610c8c60408051602081019091525f815290565b90505f815111610caa5760405180602001604052805f815250610cd5565b80610cb484610ee9565b604051602001610cc592919061169e565b6040516020818303038152906040525b9392505050565b8080610cf057506001600160a01b03821615155b15610db1575f610cff84610823565b90506001600160a01b03831615801590610d2b5750826001600160a01b0316816001600160a01b031614155b8015610d3e5750610d3c818461076a565b155b15610d675760405163a9fbf51f60e01b81526001600160a01b0384166004820152602401610427565b8115610daf5783856001600160a01b0316826001600160a01b03167f8c5be1e5ebec7d5bd14f71427d1e84f3dd0314c0f7b2291e5b200ac8c7c3b92560405160405180910390a45b505b50505f90815260046020526040902080546001600160a01b0319166001600160a01b0392909216919091179055565b5f828152600260205260408120546001600160a01b0390811690831615610e0c57610e0c818486610f79565b6001600160a01b03811615610e4657610e275f855f5f610cdc565b6001600160a01b0381165f90815260036020526040902080545f190190555b6001600160a01b03851615610e74576001600160a01b0385165f908152600360205260409020805460010190555b5f8481526002602052604080822080546001600160a01b0319166001600160a01b0389811691821790925591518793918516917fddf252ad1be2c89b69c2b068fc378daa952ba7f163c4a11628f55a4df523b3ef91a4949350505050565b610edc8383610fdd565b6104aa335f858585610aa4565b60605f610ef58361103e565b60010190505f8167ffffffffffffffff811115610f1457610f146113a8565b6040519080825280601f01601f191660200182016040528015610f3e576020820181803683370190505b5090508181016020015b5f19016f181899199a1a9b1b9c1cb0b131b232b360811b600a86061a8153600a8504945084610f4857509392505050565b610f84838383611115565b6104aa576001600160a01b038316610fb257604051637e27328960e01b815260048101829052602401610427565b60405163177e802f60e01b81526001600160a01b038316600482015260248101829052604401610427565b6001600160a01b03821661100657604051633250574960e11b81525f6004820152602401610427565b5f61101283835f610868565b90506001600160a01b038116156104aa576040516339e3563760e11b81525f6004820152602401610427565b5f8072184f03e93ff9f4daa797ed6e38ed64bf6a1f0160401b831061107c5772184f03e93ff9f4daa797ed6e38ed64bf6a1f0160401b830492506040015b6d04ee2d6d415b85acef810000000083106110a8576d04ee2d6d415b85acef8100000000830492506020015b662386f26fc1000083106110c657662386f26fc10000830492506010015b6305f5e10083106110de576305f5e100830492506008015b61271083106110f257612710830492506004015b60648310611104576064830492506002015b600a83106103375760010192915050565b5f6001600160a01b038316158015906107625750826001600160a01b0316846001600160a01b0316148061114e575061114e848461076a565b806107625750505f908152600460205260409020546001600160a01b03908116911614919050565b6001600160e01b0319811681146107d1575f5ffd5b5f6020828403121561119b575f5ffd5b8135610cd581611176565b5f81518084528060208401602086015e5f602082860101526020601f19601f83011685010191505092915050565b602081525f610cd560208301846111a6565b5f602082840312156111f6575f5ffd5b5035919050565b80356001600160a01b0381168114611213575f5ffd5b919050565b5f5f60408385031215611229575f5ffd5b611232836111fd565b946020939093013593505050565b5f5f5f60608486031215611252575f5ffd5b61125b846111fd565b9250611269602085016111fd565b929592945050506040919091013590565b5f5f83601f84011261128a575f5ffd5b50813567ffffffffffffffff8111156112a1575f5ffd5b6020830191508360208285010111156112b8575f5ffd5b9250929050565b5f5f5f5f5f5f608087890312156112d4575f5ffd5b6112dd876111fd565b9550602087013567ffffffffffffffff8111156112f8575f5ffd5b61130489828a0161127a565b909650945050604087013560ff8116811461131d575f5ffd5b9250606087013567ffffffffffffffff811115611338575f5ffd5b61134489828a0161127a565b979a9699509497509295939492505050565b5f60208284031215611366575f5ffd5b610cd5826111fd565b5f5f60408385031215611380575f5ffd5b611389836111fd565b91506020830135801515811461139d575f5ffd5b809150509250929050565b634e487b7160e01b5f52604160045260245ffd5b5f5f5f5f608085870312156113cf575f5ffd5b6113d8856111fd565b93506113e6602086016111fd565b925060408501359150606085013567ffffffffffffffff811115611408575f5ffd5b8501601f81018713611418575f5ffd5b803567ffffffffffffffff811115611432576114326113a8565b604051601f8201601f19908116603f0116810167ffffffffffffffff81118282101715611461576114616113a8565b604052818152828201602001891015611478575f5ffd5b816020840160208301375f6020838301015280935050505092959194509250565b5f5f604083850312156114aa575f5ffd5b6114b3836111fd565b91506114c1602084016111fd565b90509250929050565b600181811c908216806114de57607f821691505b6020821081036114fc57634e487b7160e01b5f52602260045260245ffd5b50919050565b5f6001820161151f57634e487b7160e01b5f52601160045260245ffd5b5060010190565b601f8211156104aa57805f5260205f20601f840160051c8101602085101561154b5750805b601f840160051c820191505b81811015610bc5575f8155600101611557565b67ffffffffffffffff831115611582576115826113a8565b6115968361159083546114ca565b83611526565b5f601f8411600181146115c7575f85156115b05750838201355b5f19600387901b1c1916600186901b178355610bc5565b5f83815260208120601f198716915b828110156115f657868501358255602094850194600190920191016115d6565b5086821015611612575f1960f88860031b161c19848701351681555b505060018560011b0183555050505050565b81835281816020850137505f828201602090810191909152601f909101601f19169091010190565b60ff86168152606060208201525f611668606083018688611624565b828103604084015261167b818587611624565b98975050505050505050565b5f81518060208401855e5f93019283525090919050565b5f6107626116ac8386611687565b84611687565b815167ffffffffffffffff8111156116cc576116cc6113a8565b6116e0816116da84546114ca565b84611526565b6020601f821160018114611712575f83156116fb5750848201515b5f19600385901b1c1916600184901b178455610bc5565b5f84815260208120601f198516915b828110156117415787850151825560209485019460019092019101611721565b508482101561175e57868401515f19600387901b60f8161c191681555b50505050600190811b01905550565b6001600160a01b03858116825284166020820152604081018390526080606082018190525f9061179f908301846111a6565b9695505050505050565b5f602082840312156117b9575f5ffd5b8151610cd58161117656fea2646970667358221220d8c3e53ed32922f0a93de74fdb048e8aa31494456be4bbf9a050f29e9b5e8a8064736f6c634300081c0033",
  "linkReferences": {},
  "deployedLinkReferences": {}
}