{
  "_format": "hh-sol-artifact-1",
  "contractName": "SealerSleeve",
  "sourceName": "contracts/SealerSleeve.sol",
  "abi": [
    {
      "inputs": [
        {
          "internalType": "address",
          "name": "initialOwner",
          "type": "address"
        }
      ],
      "stateMutability": "nonpayable",
      "type": "constructor"
    },
    {
      "inputs": [
        {
          "internalType": "address",
          "name": "sender",
          "type": "address"
        },
        {
          "internalType": "uint256",
          "name": "tokenId",
          "type": "uint256"
        },
        {
          "internalType": "address",
          "name": "owner",
          "type": "address"
        }
      ],
      "name": "ERC721IncorrectOwner",
      "type": "error"
    },
    {
      "inputs": [
        {
          "internalType": "address",
          "name": "operator",
          "type": "address"
        },
        {
          "internalType": "uint256",
          "name": "tokenId",
          "type": "uint256"
        }
      ],
      "name": "ERC721InsufficientApproval",
      "type": "error"
    },
    {
      "inputs": [
        {
          "internalType": "address",
          "name": "approver",
          "type": "address"
        }
      ],
      "name": "ERC721InvalidApprover",
      "type": "error"
    },
    {
      "inputs": [
        {
          "internalType": "address",
          "name": "operator",
          "type": "address"
        }
      ],
      "name": "ERC721InvalidOperator",
      "type": "error"
    },
    {
      "inputs": [
        {
          "internalType": "address",
          "name": "owner",
          "type": "address"
        }
      ],
      "name": "ERC721InvalidOwner",
      "type": "error"
    },
    {
      "inputs": [
        {
          "internalType": "address",
          "name": "receiver",
          "type": "address"
        }
      ],
      "name": "ERC721InvalidReceiver",
      "type": "error"
    },
    {
      "inputs": [
        {
          "internalType": "address",
          "name": "sender",
          "type": "address"
        }
      ],
      "name": "ERC721InvalidSender",
      "type": "error"
    },
    {
      "inputs": [
        {
          "internalType": "uint256",
          "name": "tokenId",
          "type": "uint256"
        }
      ],
      "name": "ERC721NonexistentToken",
      "type": "error"
    },
    {
      "inputs": [
        {
          "internalType": "address",
          "name": "owner",
          "type": "address"
        }
      ],
      "name": "OwnableInvalidOwner",
      "type": "error"
    },
    {
      "inputs": [
        {
          "internalType": "address",
          "name": "account",
          "type": "address"
        }
      ],
      "name": "OwnableUnauthorizedAccount",
      "type": "error"
    },
    {
      "anonymous": false,
      "inputs": [
        {
          "indexed": true,
          "internalType": "address",
          "name": "owner",
          "type": "address"
        },
        {
          "indexed": true,
          "internalType": "address",
          "name": "approved",
          "type": "address"
        },
        {
          "indexed": true,
          "internalType": "uint256",
          "name": "tokenId",
          "type": "uint256"
        }
      ],
      "name": "Approval",
      "type": "event"
    },
    {
      "anonymous": false,
      "inputs": [
        {
          "indexed": true,
          "internalType": "address",
          "name": "owner",
          "type": "address"
        },
        {
          "indexed": true,
          "internalType": "address",
          "name": "operator",
          "type": "address"
        },
        {
          "indexed": false,
          "internalType": "bool",
          "name": "approved",
          "type": "bool"
        }
      ],
      "name": "ApprovalForAll",
      "type": "event"
    },
    {
      "anonymous": false,
      "inputs": [
        {
          "indexed": false,
          "internalType": "uint256",
          "name": "_fromTokenId",
          "type": "uint256"
        },
        {
          "indexed": false,
          "internalType": "uint256",
          "name": "_toTokenId",
          "type": "uint256"
        }
      ],
      "name": "BatchMetadataUpdate",
      "type": "event"
    },
    {
      "anonymous": false,
      "inputs": [
        {
          "indexed": false,
          "internalType": "uint256",
          "name": "_tokenId",
          "type": "uint256"
        }
      ],
      "name": "MetadataUpdate",
      "type": "event"
    },
    {
      "anonymous": false,
      "inputs": [
        {
          "indexed": true,
          "internalType": "address",
          "name": "previousOwner",
          "type": "address"
        },
        {
          "indexed": true,
          "internalType": "address",
          "name": "newOwner",
          "type": "address"
        }
      ],
      "name": "OwnershipTransferred",
      "type": "event"
    },
    {
      "anonymous": false,
      "inputs": [
        {
          "indexed": true,
          "internalType": "uint256",
          "name": "tokenId",
          "type": "uint256"
        },
        {
          "indexed": true,
          "internalType": "address",
          "name": "recipient",
          "type": "address"
        },
        {
          "indexed": false,
          "internalType": "string",
          "name": "attestationTxHash",
          "type": "string"
        },
        {
          "indexed": false,
          "internalType": "string",
          "name": "paymentChain",
          "type": "string"
        },
        {
          "indexed": false,
          "internalType": "string",
          "name": "tokenURI",
          "type": "string"
        }
      ],
      "name": "SleeveMinted",
      "type": "event"
    },
    {
      "anonymous": false,
      "inputs": [
        {
          "indexed": true,
          "internalType": "address",
          "name": "from",
          "type": "address"
        },
        {
          "indexed": true,
          "internalType": "address",
          "name": "to",
          "type": "address"
        },
        {
          "indexed": true,
          "internalType": "uint256",
          "name": "tokenId",
          "type": "uint256"
        }
      ],
      "name": "Transfer",
      "type": "event"
    },
    {
      "inputs": [
        {
          "internalType": "address",
          "name": "to",
          "type": "address"
        },
        {
          "internalType": "uint256",
          "name": "tokenId",
          "type": "uint256"
        }
      ],
      "name": "approve",
      "outputs": [],
      "stateMutability": "nonpayable",
      "type": "function"
    },
    {
      "inputs": [
        {
          "internalType": "uint256",
          "name": "",
          "type": "uint256"
        }
      ],
      "name": "attestationTxHash",
      "outputs": [
        {
          "internalType": "string",
          "name": "",
          "type": "string"
        }
      ],
      "stateMutability": "view",
      "type": "function"
    },
    {
      "inputs": [
        {
          "internalType": "address",
          "name": "owner",
          "type": "address"
        }
      ],
      "name": "balanceOf",
      "outputs": [
        {
          "internalType": "uint256",
          "name": "",
          "type": "uint256"
        }
      ],
      "stateMutability": "view",
      "type": "function"
    },
    {
      "inputs": [
        {
          "internalType": "uint256",
          "name": "tokenId",
          "type": "uint256"
        }
      ],
      "name": "getApproved",
      "outputs": [
        {
          "internalType": "address",
          "name": "",
          "type": "address"
        }
      ],
      "stateMutability": "view",
      "type": "function"
    },
    {
      "inputs": [
        {
          "internalType": "address",
          "name": "owner",
          "type": "address"
        },
        {
          "internalType": "address",
          "name": "operator",
          "type": "address"
        }
      ],
      "name": "isApprovedForAll",
      "outputs": [
        {
          "internalType": "bool",
          "name": "",
          "type": "bool"
        }
      ],
      "stateMutability": "view",
      "type": "function"
    },
    {
      "inputs": [
        {
          "internalType": "address",
          "name": "recipient",
          "type": "address"
        },
        {
          "internalType": "string",
          "name": "uri",
          "type": "string"
        },
        {
          "internalType": "string",
          "name": "_attestationTx",
          "type": "string"
        },
        {
          "internalType": "string",
          "name": "_paymentChain",
          "type": "string"
        }
      ],
      "name": "mint",
      "outputs": [
        {
          "internalType": "uint256",
          "name": "",
          "type": "uint256"
        }
      ],
      "stateMutability": "nonpayable",
      "type": "function"
    },
    {
      "inputs": [],
      "name": "name",
      "outputs": [
        {
          "internalType": "string",
          "name": "",
          "type": "string"
        }
      ],
      "stateMutability": "view",
      "type": "function"
    },
    {
      "inputs": [
        {
          "internalType": "uint256",
          "name": "",
          "type": "uint256"
        }
      ],
      "name": "originalMinter",
      "outputs": [
        {
          "internalType": "address",
          "name": "",
          "type": "address"
        }
      ],
      "stateMutability": "view",
      "type": "function"
    },
    {
      "inputs": [],
      "name": "owner",
      "outputs": [
        {
          "internalType": "address",
          "name": "",
          "type": "address"
        }
      ],
      "stateMutability": "view",
      "type": "function"
    },
    {
      "inputs": [
        {
          "internalType": "uint256",
          "name": "tokenId",
          "type": "uint256"
        }
      ],
      "name": "ownerOf",
      "outputs": [
        {
          "internalType": "address",
          "name": "",
          "type": "address"
        }
      ],
      "stateMutability": "view",
      "type": "function"
    },
    {
      "inputs": [
        {
          "internalType": "uint256",
          "name": "",
          "type": "uint256"
        }
      ],
      "name": "paymentChain",
      "outputs": [
        {
          "internalType": "string",
          "name": "",
          "type": "string"
        }
      ],
      "stateMutability": "view",
      "type": "function"
    },
    {
      "inputs": [],
      "name": "renounceOwnership",
      "outputs": [],
      "stateMutability": "nonpayable",
      "type": "function"
    },
    {
      "inputs": [
        {
          "internalType": "address",
          "name": "from",
          "type": "address"
        },
        {
          "internalType": "address",
          "name": "to",
          "type": "address"
        },
        {
          "internalType": "uint256",
          "name": "tokenId",
          "type": "uint256"
        }
      ],
      "name": "safeTransferFrom",
      "outputs": [],
      "stateMutability": "nonpayable",
      "type": "function"
    },
    {
      "inputs": [
        {
          "internalType": "address",
          "name": "from",
          "type": "address"
        },
        {
          "internalType": "address",
          "name": "to",
          "type": "address"
        },
        {
          "internalType": "uint256",
          "name": "tokenId",
          "type": "uint256"
        },
        {
          "internalType": "bytes",
          "name": "data",
          "type": "bytes"
        }
      ],
      "name": "safeTransferFrom",
      "outputs": [],
      "stateMutability": "nonpayable",
      "type": "function"
    },
    {
      "inputs": [
        {
          "internalType": "address",
          "name": "operator",
          "type": "address"
        },
        {
          "internalType": "bool",
          "name": "approved",
          "type": "bool"
        }
      ],
      "name": "setApprovalForAll",
      "outputs": [],
      "stateMutability": "nonpayable",
      "type": "function"
    },
    {
      "inputs": [
        {
          "internalType": "bytes4",
          "name": "interfaceId",
          "type": "bytes4"
        }
      ],
      "name": "supportsInterface",
      "outputs": [
        {
          "internalType": "bool",
          "name": "",
          "type": "bool"
        }
      ],
      "stateMutability": "view",
      "type": "function"
    },
    {
      "inputs": [],
      "name": "symbol",
      "outputs": [
        {
          "internalType": "string",
          "name": "",
          "type": "string"
        }
      ],
      "stateMutability": "view",
      "type": "function"
    },
    {
      "inputs": [
        {
          "internalType": "uint256",
          "name": "tokenId",
          "type": "uint256"
        }
      ],
      "name": "tokenURI",
      "outputs": [
        {
          "internalType": "string",
          "name": "",
          "type": "string"
        }
      ],
      "stateMutability": "view",
      "type": "function"
    },
    {
      "inputs": [],
      "name": "totalSupply",
      "outputs": [
        {
          "internalType": "uint256",
          "name": "",
          "type": "uint256"
        }
      ],
      "stateMutability": "view",
      "type": "function"
    },
    {
      "inputs": [
        {
          "internalType": "address",
          "name": "from",
          "type": "address"
        },
        {
          "internalType": "address",
          "name": "to",
          "type": "address"
        },
        {
          "internalType": "uint256",
          "name": "tokenId",
          "type": "uint256"
        }
      ],
      "name": "transferFrom",
      "outputs": [],
      "stateMutability": "nonpayable",
      "type": "function"
    },
    {
      "inputs": [
        {
          "internalType": "address",
          "name": "newOwner",
          "type": "address"
        }
      ],
      "name": "transferOwnership",
      "outputs": [],
      "stateMutability": "nonpayable",
      "type": "function"
    }
  ],
  "bytecode": "0x608060405234801561000f575f5ffd5b50604051611ac5380380611ac583398101604081905261002e91610120565b806040518060400160405280600d81526020016c5365616c657220536c6565766560981b81525060405180604001604052806006815260200165534c4545564560d01b815250815f908161008291906101e5565b50600161008f82826101e5565b5050506001600160a01b0381166100bf57604051631e4fbdf760e01b81525f600482015260240160405180910390fd5b6100c8816100cf565b505061029f565b600780546001600160a01b038381166001600160a01b0319831681179093556040519116919082907f8be0079c531659141344cd1fd0a4f28419497f9722a3daafe3b4186f6b6457e0905f90a35050565b5f60208284031215610130575f5ffd5b81516001600160a01b0381168114610146575f5ffd5b9392505050565b634e487b7160e01b5f52604160045260245ffd5b600181811c9082168061017557607f821691505b60208210810361019357634e487b7160e01b5f52602260045260245ffd5b50919050565b601f8211156101e057805f5260205f20601f840160051c810160208510156101be5750805b601f840160051c820191505b818110156101dd575f81556001016101ca565b50505b505050565b81516001600160401b038111156101fe576101fe61014d565b6102128161020c8454610161565b84610199565b6020601f821160018114610244575f831561022d5750848201515b5f19600385901b1c1916600184901b1784556101dd565b5f84815260208120601f198516915b828110156102735787850151825560209485019460019092019101610253565b508482101561029057868401515f19600387901b60f8161c191681555b50505050600190811b01905550565b611819806102ac5f395ff3fe608060405234801561000f575f5ffd5b5060043610610132575f3560e01c806370a08231116100b4578063a22cb46511610079578063a22cb46514610280578063b88d4fde14610293578063bfe0b25d146102a6578063c87b56dd146102b9578063e985e9c5146102cc578063f2fde38b146102df575f5ffd5b806370a0823114610239578063715018a61461024c57806382ad5ea6146102545780638da5cb5b1461026757806395d89b4114610278575f5ffd5b806323b872dd116100fa57806323b872dd146101c55780632d414ae5146101d857806342842e0e146102005780634a0706be146102135780636352211e14610226575f5ffd5b806301ffc9a71461013657806306fdde031461015e578063081812fc14610173578063095ea7b31461019e57806318160ddd146101b3575b5f5ffd5b610149610144366004611185565b6102f2565b60405190151581526020015b60405180910390f35b61016661031c565b60405161015591906111ce565b6101866101813660046111e0565b6103ab565b6040516001600160a01b039091168152602001610155565b6101b16101ac366004611212565b6103d2565b005b6008545b604051908152602001610155565b6101b16101d336600461123a565b6103e1565b6101866101e63660046111e0565b600a6020525f90815260409020546001600160a01b031681565b6101b161020e36600461123a565b61046f565b6101b76102213660046112b9565b61048e565b6101866102343660046111e0565b6105a3565b6101b7610247366004611368565b6105ad565b6101b16105f2565b6101666102623660046111e0565b610605565b6007546001600160a01b0316610186565b61016661069c565b6101b161028e366004611381565b6106ab565b6101b16102a13660046113ce565b6106b6565b6101666102b43660046111e0565b6106ce565b6101666102c73660046111e0565b6106e6565b6101496102da3660046114ab565b610767565b6101b16102ed366004611368565b610794565b5f6001600160e01b03198216632483248360e11b14806103165750610316826107d1565b92915050565b60605f805461032a906114dc565b80601f0160208091040260200160405190810160405280929190818152602001828054610356906114dc565b80156103a15780601f10610378576101008083540402835291602001916103a1565b820191905f5260205f20905b81548152906001019060200180831161038457829003601f168201915b5050505050905090565b5f6103b582610820565b505f828152600460205260409020546001600160a01b0316610316565b6103dd828233610858565b5050565b6001600160a01b03821661040f57604051633250574960e11b81525f60048201526024015b60405180910390fd5b5f61041b838333610865565b9050836001600160a01b0316816001600160a01b031614610469576040516364283d7b60e01b81526001600160a01b0380861660048301526024820184905282166044820152606401610406565b50505050565b61048983838360405180602001604052805f8152506106b6565b505050565b5f6104976108f1565b600880545f91826104a783611514565b9190505590506104b7898261091e565b6104f68189898080601f0160208091040260200160405190810160405280939291908181526020018383808284375f9201919091525061093792505050565b5f81815260096020526040902061050e86888361157c565b505f818152600a6020908152604080832080546001600160a01b0319166001600160a01b038e16179055600b909152902061054a84868361157c565b50886001600160a01b0316817f2f3a503b734c4517e07b0ca6ef102b74e5abf5973849c3ecfa15a332ceff659d888888888e8e60405161058f9695949392919061165e565b60405180910390a398975050505050505050565b5f61031682610820565b5f6001600160a01b0382166105d7576040516322718ad960e21b81525f6004820152602401610406565b506001600160a01b03165f9081526003602052604090205490565b6105fa6108f1565b6106035f610986565b565b600b6020525f90815260409020805461061d906114dc565b80601f0160208091040260200160405190810160405280929190818152602001828054610649906114dc565b80156106945780601f1061066b57610100808354040283529160200191610694565b820191905f5260205f20905b81548152906001019060200180831161067757829003601f168201915b505050505081565b60606001805461032a906114dc565b6103dd3383836109d7565b6106c18484846103e1565b6104693385858585610a9e565b60096020525f90815260409020805461061d906114dc565b60606106f182610820565b505f61070760408051602081019091525f815290565b90505f61071384610bc6565b905081515f03610724579392505050565b80511561075657818160405160200161073e9291906116bd565b60405160208183030381529060405292505050919050565b61075f84610c65565b949350505050565b6001600160a01b039182165f90815260056020908152604080832093909416825291909152205460ff1690565b61079c6108f1565b6001600160a01b0381166107c557604051631e4fbdf760e01b81525f6004820152602401610406565b6107ce81610986565b50565b5f6001600160e01b031982166380ac58cd60e01b148061080157506001600160e01b03198216635b5e139f60e01b145b8061031657506301ffc9a760e01b6001600160e01b0319831614610316565b5f818152600260205260408120546001600160a01b03168061031657604051637e27328960e01b815260048101849052602401610406565b6104898383836001610cd6565b5f828152600260205260408120546001600160a01b031680156108dd5760405162461bcd60e51b815260206004820152602a60248201527f5365616c6572536c656576653a20736f756c626f756e64202d206e6f6e2d7472604482015269616e7366657261626c6560b01b6064820152608401610406565b6108e8858585610dda565b95945050505050565b6007546001600160a01b031633146106035760405163118cdaa760e01b8152336004820152602401610406565b6103dd828260405180602001604052805f815250610ecc565b5f82815260066020526040902061094e82826116d1565b506040518281527ff8e1a15aba9398e019f0b49df1a4fde98ee17ae345cb5f6b5e2c27f5033e8ce79060200160405180910390a15050565b600780546001600160a01b038381166001600160a01b0319831681179093556040519116919082907f8be0079c531659141344cd1fd0a4f28419497f9722a3daafe3b4186f6b6457e0905f90a35050565b6001600160a01b038316610a005760405163a9fbf51f60e01b81525f6004820152602401610406565b6001600160a01b038216610a3257604051630b61174360e31b81526001600160a01b0383166004820152602401610406565b6001600160a01b038381165f81815260056020908152604080832094871680845294825291829020805460ff191686151590811790915591519182527f17307eab39ab6107e8899845ad3d59bd9653f200f220920489ca2b5937696c31910160405180910390a3505050565b6001600160a01b0383163b15610bbf57604051630a85bd0160e11b81526001600160a01b0384169063150b7a0290610ae090889088908790879060040161178c565b6020604051808303815f875af1925050508015610b1a575060408051601f3d908101601f19168201909252610b17918101906117c8565b60015b610b81573d808015610b47576040519150601f19603f3d011682016040523d82523d5f602084013e610b4c565b606091505b5080515f03610b7957604051633250574960e11b81526001600160a01b0385166004820152602401610406565b805160208201fd5b6001600160e01b03198116630a85bd0160e11b14610bbd57604051633250574960e11b81526001600160a01b0385166004820152602401610406565b505b5050505050565b5f818152600660205260409020805460609190610be2906114dc565b80601f0160208091040260200160405190810160405280929190818152602001828054610c0e906114dc565b8015610c595780601f10610c3057610100808354040283529160200191610c59565b820191905f5260205f20905b815481529060010190602001808311610c3c57829003601f168201915b50505050509050919050565b6060610c7082610820565b505f610c8660408051602081019091525f815290565b90505f815111610ca45760405180602001604052805f815250610ccf565b80610cae84610ee3565b604051602001610cbf9291906116bd565b6040516020818303038152906040525b9392505050565b8080610cea57506001600160a01b03821615155b15610dab575f610cf984610820565b90506001600160a01b03831615801590610d255750826001600160a01b0316816001600160a01b031614155b8015610d385750610d368184610767565b155b15610d615760405163a9fbf51f60e01b81526001600160a01b0384166004820152602401610406565b8115610da95783856001600160a01b0316826001600160a01b03167f8c5be1e5ebec7d5bd14f71427d1e84f3dd0314c0f7b2291e5b200ac8c7c3b92560405160405180910390a45b505b50505f90815260046020526040902080546001600160a01b0319166001600160a01b0392909216919091179055565b5f828152600260205260408120546001600160a01b0390811690831615610e0657610e06818486610f73565b6001600160a01b03811615610e4057610e215f855f5f610cd6565b6001600160a01b0381165f90815260036020526040902080545f190190555b6001600160a01b03851615610e6e576001600160a01b0385165f908152600360205260409020805460010190555b5f8481526002602052604080822080546001600160a01b0319166001600160a01b0389811691821790925591518793918516917fddf252ad1be2c89b69c2b068fc378daa952ba7f163c4a11628f55a4df523b3ef91a4949350505050565b610ed68383610fd7565b610489335f858585610a9e565b60605f610eef83611038565b60010190505f8167ffffffffffffffff811115610f0e57610f0e6113ba565b6040519080825280601f01601f191660200182016040528015610f38576020820181803683370190505b5090508181016020015b5f19016f181899199a1a9b1b9c1cb0b131b232b360811b600a86061a8153600a8504945084610f4257509392505050565b610f7e83838361110f565b610489576001600160a01b038316610fac57604051637e27328960e01b815260048101829052602401610406565b60405163177e802f60e01b81526001600160a01b038316600482015260248101829052604401610406565b6001600160a01b03821661100057604051633250574960e11b81525f6004820152602401610406565b5f61100c83835f610865565b90506001600160a01b03811615610489576040516339e3563760e11b81525f6004820152602401610406565b5f8072184f03e93ff9f4daa797ed6e38ed64bf6a1f0160401b83106110765772184f03e93ff9f4daa797ed6e38ed64bf6a1f0160401b830492506040015b6d04ee2d6d415b85acef810000000083106110a2576d04ee2d6d415b85acef8100000000830492506020015b662386f26fc1000083106110c057662386f26fc10000830492506010015b6305f5e10083106110d8576305f5e100830492506008015b61271083106110ec57612710830492506004015b606483106110fe576064830492506002015b600a83106103165760010192915050565b5f6001600160a01b0383161580159061075f5750826001600160a01b0316846001600160a01b0316148061114857506111488484610767565b8061075f5750505f908152600460205260409020546001600160a01b03908116911614919050565b6001600160e01b0319811681146107ce575f5ffd5b5f60208284031215611195575f5ffd5b8135610ccf81611170565b5f81518084528060208401602086015e5f602082860101526020601f19601f83011685010191505092915050565b602081525f610ccf60208301846111a0565b5f602082840312156111f0575f5ffd5b5035919050565b80356001600160a01b038116811461120d575f5ffd5b919050565b5f5f60408385031215611223575f5ffd5b61122c836111f7565b946020939093013593505050565b5f5f5f6060848603121561124c575f5ffd5b611255846111f7565b9250611263602085016111f7565b929592945050506040919091013590565b5f5f83601f840112611284575f5ffd5b50813567ffffffffffffffff81111561129b575f5ffd5b6020830191508360208285010111156112b2575f5ffd5b9250929050565b5f5f5f5f5f5f5f6080888a0312156112cf575f5ffd5b6112d8886111f7565b9650602088013567ffffffffffffffff8111156112f3575f5ffd5b6112ff8a828b01611274565b909750955050604088013567ffffffffffffffff81111561131e575f5ffd5b61132a8a828b01611274565b909550935050606088013567ffffffffffffffff811115611349575f5ffd5b6113558a828b01611274565b989b979a50959850939692959293505050565b5f60208284031215611378575f5ffd5b610ccf826111f7565b5f5f60408385031215611392575f5ffd5b61139b836111f7565b9150602083013580151581146113af575f5ffd5b809150509250929050565b634e487b7160e01b5f52604160045260245ffd5b5f5f5f5f608085870312156113e1575f5ffd5b6113ea856111f7565b93506113f8602086016111f7565b925060408501359150606085013567ffffffffffffffff81111561141a575f5ffd5b8501601f8101871361142a575f5ffd5b803567ffffffffffffffff811115611444576114446113ba565b604051601f8201601f19908116603f0116810167ffffffffffffffff81118282101715611473576114736113ba565b60405281815282820160200189101561148a575f5ffd5b816020840160208301375f6020838301015280935050505092959194509250565b5f5f604083850312156114bc575f5ffd5b6114c5836111f7565b91506114d3602084016111f7565b90509250929050565b600181811c908216806114f057607f821691505b60208210810361150e57634e487b7160e01b5f52602260045260245ffd5b50919050565b5f6001820161153157634e487b7160e01b5f52601160045260245ffd5b5060010190565b601f82111561048957805f5260205f20601f840160051c8101602085101561155d5750805b601f840160051c820191505b81811015610bbf575f8155600101611569565b67ffffffffffffffff831115611594576115946113ba565b6115a8836115a283546114dc565b83611538565b5f601f8411600181146115d9575f85156115c25750838201355b5f19600387901b1c1916600186901b178355610bbf565b5f83815260208120601f198716915b8281101561160857868501358255602094850194600190920191016115e8565b5086821015611624575f1960f88860031b161c19848701351681555b505060018560011b0183555050505050565b81835281816020850137505f828201602090810191909152601f909101601f19169091010190565b606081525f61167160608301888a611636565b8281036020840152611684818789611636565b90508281036040840152611699818587611636565b9998505050505050505050565b5f81518060208401855e5f93019283525090919050565b5f61075f6116cb83866116a6565b846116a6565b815167ffffffffffffffff8111156116eb576116eb6113ba565b6116ff816116f984546114dc565b84611538565b6020601f821160018114611731575f831561171a5750848201515b5f19600385901b1c1916600184901b178455610bbf565b5f84815260208120601f198516915b828110156117605787850151825560209485019460019092019101611740565b508482101561177d57868401515f19600387901b60f8161c191681555b50505050600190811b01905550565b6001600160a01b03858116825284166020820152604081018390526080606082018190525f906117be908301846111a0565b9695505050505050565b5f602082840312156117d8575f5ffd5b8151610ccf8161117056fea264697066735822122063c9b41434f430a48925fddce47ce9229e4a3545efc325ce89f8a472ef91d78e64736f6c634300081c0033",
  "linkReferences": {},
  "deployedLinkReferences": {}
}