{
  "_format": "hh-sol-artifact-1",
  "contractName": "SealerSleeve",
  "sourceName": "contracts/SealerSleeve.sol",
  "abi": [
    {
      "inputs": [
        {
          "internalType": "address",
          "name": "initialOwner",
          "type": "address"
        }
      ],
      "stateMutability": "nonpayable",
      "type": "constructor"
    },
    {
      "inputs": [
        {
          "internalType": "address",
          "name": "sender",
          "type": "address"
        },
        {
          "internalType": "uint256",
          "name": "tokenId",
          "type": "uint256"
        },
        {
          "internalType": "address",
          "name": "owner",
          "type": "address"
        }
      ],
      "name": "ERC721IncorrectOwner",
      "type": "error"
    },
    {
      "inputs": [
        {
          "internalType": "address",
          "name": "operator",
          "type": "address"
        },
        {
          "internalType": "uint256",
          "name": "tokenId",
          "type": "uint256"
        }
      ],
      "name": "ERC721InsufficientApproval",
      "type": "error"
    },
    {
      "inputs": [
        {
          "internalType": "address",
          "name": "approver",
          "type": "address"
        }
      ],
      "name": "ERC721InvalidApprover",
      "type": "error"
    },
    {
      "inputs": [
        {
          "internalType": "address",
          "name": "operator",
          "type": "address"
        }
      ],
      "name": "ERC721InvalidOperator",
      "type": "error"
    },
    {
      "inputs": [
        {
          "internalType": "address",
          "name": "owner",
          "type": "address"
        }
      ],
      "name": "ERC721InvalidOwner",
      "type": "error"
    },
    {
      "inputs": [
        {
          "internalType": "address",
          "name": "receiver",
          "type": "address"
        }
      ],
      "name": "ERC721InvalidReceiver",
      "type": "error"
    },
    {
      "inputs": [
        {
          "internalType": "address",
          "name": "sender",
          "type": "address"
        }
      ],
      "name": "ERC721InvalidSender",
      "type": "error"
    },
    {
      "inputs": [
        {
          "internalType": "uint256",
          "name": "tokenId",
          "type": "uint256"
        }
      ],
      "name": "ERC721NonexistentToken",
      "type": "error"
    },
    {
      "inputs": [
        {
          "internalType": "address",
          "name": "owner",
          "type": "address"
        }
      ],
      "name": "OwnableInvalidOwner",
      "type": "error"
    },
    {
      "inputs": [
        {
          "internalType": "address",
          "name": "account",
          "type": "address"
        }
      ],
      "name": "OwnableUnauthorizedAccount",
      "type": "error"
    },
    {
      "anonymous": false,
      "inputs": [
        {
          "indexed": true,
          "internalType": "address",
          "name": "owner",
          "type": "address"
        },
        {
          "indexed": true,
          "internalType": "address",
          "name": "approved",
          "type": "address"
        },
        {
          "indexed": true,
          "internalType": "uint256",
          "name": "tokenId",
          "type": "uint256"
        }
      ],
      "name": "Approval",
      "type": "event"
    },
    {
      "anonymous": false,
      "inputs": [
        {
          "indexed": true,
          "internalType": "address",
          "name": "owner",
          "type": "address"
        },
        {
          "indexed": true,
          "internalType": "address",
          "name": "operator",
          "type": "address"
        },
        {
          "indexed": false,
          "internalType": "bool",
          "name": "approved",
          "type": "bool"
        }
      ],
      "name": "ApprovalForAll",
      "type": "event"
    },
    {
      "anonymous": false,
      "inputs": [
        {
          "indexed": false,
          "internalType": "uint256",
          "name": "_fromTokenId",
          "type": "uint256"
        },
        {
          "indexed": false,
          "internalType": "uint256",
          "name": "_toTokenId",
          "type": "uint256"
        }
      ],
      "name": "BatchMetadataUpdate",
      "type": "event"
    },
    {
      "anonymous": false,
      "inputs": [
        {
          "indexed": false,
          "internalType": "uint256",
          "name": "_tokenId",
          "type": "uint256"
        }
      ],
      "name": "MetadataUpdate",
      "type": "event"
    },
    {
      "anonymous": false,
      "inputs": [
        {
          "indexed": true,
          "internalType": "address",
          "name": "previousOwner",
          "type": "address"
        },
        {
          "indexed": true,
          "internalType": "address",
          "name": "newOwner",
          "type": "address"
        }
      ],
      "name": "OwnershipTransferred",
      "type": "event"
    },
    {
      "anonymous": false,
      "inputs": [
        {
          "indexed": true,
          "internalType": "uint256",
          "name": "tokenId",
          "type": "uint256"
        },
        {
          "indexed": true,
          "internalType": "address",
          "name": "recipient",
          "type": "address"
        },
        {
          "indexed": false,
          "internalType": "string",
          "name": "attestationTxHash",
          "type": "string"
        },
        {
          "indexed": false,
          "internalType": "string",
          "name": "paymentChain",
          "type": "string"
        },
        {
          "indexed": false,
          "internalType": "string",
          "name": "tokenURI",
          "type": "string"
        }
      ],
      "name": "SleeveMinted",
      "type": "event"
    },
    {
      "anonymous": false,
      "inputs": [
        {
          "indexed": true,
          "internalType": "address",
          "name": "from",
          "type": "address"
        },
        {
          "indexed": true,
          "internalType": "address",
          "name": "to",
          "type": "address"
        },
        {
          "indexed": true,
          "internalType": "uint256",
          "name": "tokenId",
          "type": "uint256"
        }
      ],
      "name": "Transfer",
      "type": "event"
    },
    {
      "inputs": [
        {
          "internalType": "address",
          "name": "to",
          "type": "address"
        },
        {
          "internalType": "uint256",
          "name": "tokenId",
          "type": "uint256"
        }
      ],
      "name": "approve",
      "outputs": [],
      "stateMutability": "nonpayable",
      "type": "function"
    },
    {
      "inputs": [
        {
          "internalType": "uint256",
          "name": "",
          "type": "uint256"
        }
      ],
      "name": "attestationTxHash",
      "outputs": [
        {
          "internalType": "string",
          "name": "",
          "type": "string"
        }
      ],
      "stateMutability": "view",
      "type": "function"
    },
    {
      "inputs": [
        {
          "internalType": "address",
          "name": "owner",
          "type": "address"
        }
      ],
      "name": "balanceOf",
      "outputs": [
        {
          "internalType": "uint256",
          "name": "",
          "type": "uint256"
        }
      ],
      "stateMutability": "view",
      "type": "function"
    },
    {
      "inputs": [
        {
          "internalType": "uint256",
          "name": "tokenId",
          "type": "uint256"
        }
      ],
      "name": "getApproved",
      "outputs": [
        {
          "internalType": "address",
          "name": "",
          "type": "address"
        }
      ],
      "stateMutability": "view",
      "type": "function"
    },
    {
      "inputs": [
        {
          "internalType": "address",
          "name": "owner",
          "type": "address"
        },
        {
          "internalType": "address",
          "name": "operator",
          "type": "address"
        }
      ],
      "name": "isApprovedForAll",
      "outputs": [
        {
          "internalType": "bool",
          "name": "",
          "type": "bool"
        }
      ],
      "stateMutability": "view",
      "type": "function"
    },
    {
      "inputs": [
        {
          "internalType": "address",
          "name": "recipient",
          "type": "address"
        },
        {
          "internalType": "string",
          "name": "uri",
          "type": "string"
        },
        {
          "internalType": "string",
          "name": "_attestationTx",
          "type": "string"
        },
        {
          "internalType": "string",
          "name": "_paymentChain",
          "type": "string"
        }
      ],
      "name": "mint",
      "outputs": [
        {
          "internalType": "uint256",
          "name": "",
          "type": "uint256"
        }
      ],
      "stateMutability": "nonpayable",
      "type": "function"
    },
    {
      "inputs": [],
      "name": "name",
      "outputs": [
        {
          "internalType": "string",
          "name": "",
          "type": "string"
        }
      ],
      "stateMutability": "view",
      "type": "function"
    },
    {
      "inputs": [
        {
          "internalType": "uint256",
          "name": "",
          "type": "uint256"
        }
      ],
      "name": "originalMinter",
      "outputs": [
        {
          "internalType": "address",
          "name": "",
          "type": "address"
        }
      ],
      "stateMutability": "view",
      "type": "function"
    },
    {
      "inputs": [],
      "name": "owner",
      "outputs": [
        {
          "internalType": "address",
          "name": "",
          "type": "address"
        }
      ],
      "stateMutability": "view",
      "type": "function"
    },
    {
      "inputs": [
        {
          "internalType": "uint256",
          "name": "tokenId",
          "type": "uint256"
        }
      ],
      "name": "ownerOf",
      "outputs": [
        {
          "internalType": "address",
          "name": "",
          "type": "address"
        }
      ],
      "stateMutability": "view",
      "type": "function"
    },
    {
      "inputs": [
        {
          "internalType": "uint256",
          "name": "",
          "type": "uint256"
        }
      ],
      "name": "paymentChain",
      "outputs": [
        {
          "internalType": "string",
          "name": "",
          "type": "string"
        }
      ],
      "stateMutability": "view",
      "type": "function"
    },
    {
      "inputs": [],
      "name": "renounceOwnership",
      "outputs": [],
      "stateMutability": "nonpayable",
      "type": "function"
    },
    {
      "inputs": [
        {
          "internalType": "address",
          "name": "from",
          "type": "address"
        },
        {
          "internalType": "address",
          "name": "to",
          "type": "address"
        },
        {
          "internalType": "uint256",
          "name": "tokenId",
          "type": "uint256"
        }
      ],
      "name": "safeTransferFrom",
      "outputs": [],
      "stateMutability": "nonpayable",
      "type": "function"
    },
    {
      "inputs": [
        {
          "internalType": "address",
          "name": "from",
          "type": "address"
        },
        {
          "internalType": "address",
          "name": "to",
          "type": "address"
        },
        {
          "internalType": "uint256",
          "name": "tokenId",
          "type": "uint256"
        },
        {
          "internalType": "bytes",
          "name": "data",
          "type": "bytes"
        }
      ],
      "name": "safeTransferFrom",
      "outputs": [],
      "stateMutability": "nonpayable",
      "type": "function"
    },
    {
      "inputs": [
        {
          "internalType": "address",
          "name": "operator",
          "type": "address"
        },
        {
          "internalType": "bool",
          "name": "approved",
          "type": "bool"
        }
      ],
      "name": "setApprovalForAll",
      "outputs": [],
      "stateMutability": "nonpayable",
      "type": "function"
    },
    {
      "inputs": [
        {
          "internalType": "bytes4",
          "name": "interfaceId",
          "type": "bytes4"
        }
      ],
      "name": "supportsInterface",
      "outputs": [
        {
          "internalType": "bool",
          "name": "",
          "type": "bool"
        }
      ],
      "stateMutability": "view",
      "type": "function"
    },
    {
      "inputs": [],
      "name": "symbol",
      "outputs": [
        {
          "internalType": "string",
          "name": "",
          "type": "string"
        }
      ],
      "stateMutability": "view",
      "type": "function"
    },
    {
      "inputs": [
        {
          "internalType": "uint256",
          "name": "tokenId",
          "type": "uint256"
        }
      ],
      "name": "tokenURI",
      "outputs": [
        {
          "internalType": "string",
          "name": "",
          "type": "string"
        }
      ],
      "stateMutability": "view",
      "type": "function"
    },
    {
      "inputs": [],
      "name": "totalSupply",
      "outputs": [
        {
          "internalType": "uint256",
          "name": "",
          "type": "uint256"
        }
      ],
      "stateMutability": "view",
      "type": "function"
    },
    {
      "inputs": [
        {
          "internalType": "address",
          "name": "from",
          "type": "address"
        },
        {
          "internalType": "address",
          "name": "to",
          "type": "address"
        },
        {
          "internalType": "uint256",
          "name": "tokenId",
          "type": "uint256"
        }
      ],
      "name": "transferFrom",
      "outputs": [],
      "stateMutability": "nonpayable",
      "type": "function"
    },
    {
      "inputs": [
        {
          "internalType": "address",
          "name": "newOwner",
          "type": "address"
        }
      ],
      "name": "transferOwnership",
      "outputs": [],
      "stateMutability": "nonpayable",
      "type": "function"
    }
  ],
  "bytecode": "0x608060405234610386576119796020813803918261001c8161038a565b93849283398101031261038657516001600160a01b0381169081900361038657610046604061038a565b90600d82526c5365616c657220536c6565766560981b602083015261006b604061038a565b6006815265534c4545564560d01b602082015282519091906001600160401b03811161029a575f54600181811c9116801561037c575b602082101461027c57601f811161031a575b506020601f82116001146102b957819293945f926102ae575b50508160011b915f199060031b1c1916175f555b81516001600160401b03811161029a57600154600181811c91168015610290575b602082101461027c57601f8111610219575b50602092601f82116001146101b857928192935f926101ad575b50508160011b915f199060031b1c1916176001555b801561019a57600780546001600160a01b03198116831790915560405191906001600160a01b03167f8be0079c531659141344cd1fd0a4f28419497f9722a3daafe3b4186f6b6457e05f80a36115c990816103b08239f35b631e4fbdf760e01b5f525f60045260245ffd5b015190505f8061012d565b601f1982169360015f52805f20915f5b86811061020157508360019596106101e9575b505050811b01600155610142565b01515f1960f88460031b161c191690555f80806101db565b919260206001819286850151815501940192016101c8565b60015f527fb10e2d527612073b26eecdfd717e6a320cf44b4afac2b0732d9fcbe2b7fa0cf6601f830160051c81019160208410610272575b601f0160051c01905b8181106102675750610113565b5f815560010161025a565b9091508190610251565b634e487b7160e01b5f52602260045260245ffd5b90607f1690610101565b634e487b7160e01b5f52604160045260245ffd5b015190505f806100cc565b601f198216905f8052805f20915f5b818110610302575095836001959697106102ea575b505050811b015f556100e0565b01515f1960f88460031b161c191690555f80806102dd565b9192602060018192868b0151815501940192016102c8565b5f80527f290decd9548b62a8d60345a988386fc84ba6bc95484008f6362f93160ef3e563601f830160051c81019160208410610372575b601f0160051c01905b81811061036757506100b3565b5f815560010161035a565b9091508190610351565b90607f16906100a1565b5f80fd5b6040519190601f01601f191682016001600160401b0381118382101761029a5760405256fe6080806040526004361015610012575f80fd5b5f3560e01c90816301ffc9a714610e575750806306fdde0314610db5578063081812fc14610d79578063095ea7b314610c8f57806318160ddd14610c7257806323b872dd14610c5b5780632d414ae514610c2957806342842e0e14610bfa5780634a0706be1461055f5780636352211e1461052f57806370a08231146104de578063715018a61461048357806382ad5ea6146104595780638da5cb5b1461043157806395d89b4114610367578063a22cb465146102b3578063b88d4fde14610245578063bfe0b25d1461021b578063c87b56dd146101e4578063e985e9c51461018d5763f2fde38b14610103575f80fd5b346101895760203660031901126101895761011c610f00565b610124611436565b6001600160a01b0316801561017657600780546001600160a01b0319811683179091556001600160a01b03167f8be0079c531659141344cd1fd0a4f28419497f9722a3daafe3b4186f6b6457e05f80a3005b631e4fbdf760e01b5f525f60045260245ffd5b5f80fd5b34610189576040366003190112610189576101a6610f00565b6101ae610f16565b9060018060a01b03165f52600560205260405f209060018060a01b03165f52602052602060ff60405f2054166040519015158152f35b346101895760203660031901126101895761021761020360043561134f565b604051918291602083526020830190610edc565b0390f35b34610189576020366003190112610189576004355f52600960205261021761020360405f20610fee565b346101895760803660031901126101895761025e610f00565b610266610f16565b906044356064359267ffffffffffffffff841161018957366023850112156101895761029f6102b19436906024816004013591016110aa565b926102ab8383836110e0565b3361145d565b005b34610189576040366003190112610189576102cc610f00565b60243590811515809203610189573315610354576001600160a01b031690811561034157335f52600560205260405f20825f5260205260405f2060ff1981541660ff83161790556040519081527f17307eab39ab6107e8899845ad3d59bd9653f200f220920489ca2b5937696c3160203392a3005b50630b61174360e31b5f5260045260245ffd5b63a9fbf51f60e01b5f525f60045260245ffd5b34610189575f366003190112610189576040515f60015461038781610f94565b808452906001811690811561040d57506001146103af575b6102178361020381850382610fcc565b60015f9081527fb10e2d527612073b26eecdfd717e6a320cf44b4afac2b0732d9fcbe2b7fa0cf6939250905b8082106103f35750909150810160200161020361039f565b9192600181602092548385880101520191019092916103db565b60ff191660208086019190915291151560051b84019091019150610203905061039f565b34610189575f366003190112610189576007546040516001600160a01b039091168152602090f35b34610189576020366003190112610189576004355f52600b60205261021761020360405f20610fee565b34610189575f3660031901126101895761049b611436565b600780546001600160a01b031981169091555f906001600160a01b03167f8be0079c531659141344cd1fd0a4f28419497f9722a3daafe3b4186f6b6457e08280a3005b34610189576020366003190112610189576001600160a01b036104ff610f00565b16801561051c575f526003602052602060405f2054604051908152f35b6322718ad960e21b5f525f60045260245ffd5b3461018957602036600319011261018957602061054d600435611402565b6040516001600160a01b039091168152f35b3461018957608036600319011261018957610578610f00565b60243567ffffffffffffffff811161018957610598903690600401610f66565b9160443567ffffffffffffffff8111610189576105b9903690600401610f66565b939060643567ffffffffffffffff8111610189576105db903690600401610f66565b9190956105e6611436565b600854955f198714610be657600187016008556020976040516106098a82610fcc565b5f81526001600160a01b038816978815610bd3575f8a815260028c5260409020546001600160a01b0316610b7b575f8a815260028c5260409020546001600160a01b03168015159081610b4a575b8a5f5260038d5260405f20600181540190558b5f5260028d5260405f208b6bffffffffffffffffffffffff60a01b8254161790558b8b827fddf252ad1be2c89b69c2b068fc378daa952ba7f163c4a11628f55a4df523b3ef5f80a450610b37573b610a21575b506106c93687846110aa565b885f5260068a5260405f2090805167ffffffffffffffff811161092e576106fa816106f48554610f94565b856112e0565b8b8c601f83116001146109bc57508190610729935f926109b1575b50508160011b915f199060031b1c19161790565b90555b7ff8e1a15aba9398e019f0b49df1a4fde98ee17ae345cb5f6b5e2c27f5033e8ce7896040518a8152a1875f526009895260405f2067ffffffffffffffff841161092e576107838461077d8354610f94565b836112e0565b5f84601f811160011461094d57806107af925f91610942575b508160011b915f199060031b1c19161790565b90555b5f888152600a8a52604080822080546001600160a01b0319168a179055898252600b8b5290209467ffffffffffffffff811161092e57856107f88261077d8c9954610f94565b5f601f831160011461089b57928261087792610850827f2f3a503b734c4517e07b0ca6ef102b74e5abf5973849c3ecfa15a332ceff659d9b9c9661088599985f9161089057508160011b915f199060031b1c19161790565b90555b61086a60405198899860608a5260608a019161132f565b878103888f01529161132f565b91848303604086015261132f565b0390a3604051908152f35b90508501355f61079c565b5f8281528c81209190601f198516908e5b8282106109145750509261088596959285927f2f3a503b734c4517e07b0ca6ef102b74e5abf5973849c3ecfa15a332ceff659d9b9c9661087796106108fb575b5050600182811b019055610853565b8401355f19600385901b60f8161c191690558e806108ec565b8784013585558e9b5060019094019392830192018e6108ac565b634e487b7160e01b5f52604160045260245ffd5b90508701358d61079c565b50601f19851690825f52858c5f20928d5f905b8282106109975750501061097e575b5050600184811b0190556107b2565b8601355f19600387901b60f8161c191690558a8061096f565b8a850135865560019095019493840193899350018e610960565b015190508d80610715565b9192601f198416855f52835f20935f905b828210610a095750509084600195949392106109f1575b505050811b01905561072c565b01515f1960f88460031b161c191690558c80806109e4565b806001869782949787015181550196019401906109cd565b89610a6291898b5f60409e9d9c9e51809681958294630a85bd0160e11b84523360048501528460248501526044840152608060648401526084830190610edc565b03925af15f9181610af7575b50610ac35789893d15610abb573d90610a868261108e565b91610a946040519384610fcc565b82523d5f8284013e5b81519182610ab85783633250574960e11b5f5260045260245ffd5b01fd5b606090610a9d565b979896976001600160e01b03191663757a42ff60e11b01610ae457896106bd565b86633250574960e11b5f5260045260245ffd5b9091508981813d8311610b30575b610b0f8183610fcc565b8101031261018957516001600160e01b03198116810361018957908b610a6e565b503d610b05565b6339e3563760e11b5f525f60045260245ffd5b5f8c81526004602052604080822080546001600160a01b031916905582825260038f52902080545f19019055610657565b60405162461bcd60e51b8152600481018c9052602a60248201527f5365616c6572536c656576653a20736f756c626f756e64202d206e6f6e2d7472604482015269616e7366657261626c6560b01b6064820152608490fd5b633250574960e11b5f525f60045260245ffd5b634e487b7160e01b5f52601160045260245ffd5b34610189576102b1610c0b36610f2c565b9060405192610c1b602085610fcc565b5f84526102ab8383836110e0565b34610189576020366003190112610189576004355f52600a602052602060018060a01b0360405f205416604051908152f35b34610189576102b1610c6c36610f2c565b916110e0565b34610189575f366003190112610189576020600854604051908152f35b3461018957604036600319011261018957610ca8610f00565b602435610cb481611402565b33151580610d66575b80610d39575b610d265781906001600160a01b0384811691167f8c5be1e5ebec7d5bd14f71427d1e84f3dd0314c0f7b2291e5b200ac8c7c3b9255f80a45f90815260046020526040902080546001600160a01b0319166001600160a01b03909216919091179055005b63a9fbf51f60e01b5f523360045260245ffd5b506001600160a01b0381165f90815260056020908152604080832033845290915290205460ff1615610cc3565b506001600160a01b038116331415610cbd565b3461018957602036600319011261018957600435610d9681611402565b505f526004602052602060018060a01b0360405f205416604051908152f35b34610189575f366003190112610189576040515f5f54610dd481610f94565b808452906001811690811561040d5750600114610dfb576102178361020381850382610fcc565b5f8080527f290decd9548b62a8d60345a988386fc84ba6bc95484008f6362f93160ef3e563939250905b808210610e3d5750909150810160200161020361039f565b919260018160209254838588010152019101909291610e25565b34610189576020366003190112610189576004359063ffffffff60e01b821680920361018957602091632483248360e11b8114908115610e99575b5015158152f35b6380ac58cd60e01b811491508115610ecb575b8115610eba575b5083610e92565b6301ffc9a760e01b14905083610eb3565b635b5e139f60e01b81149150610eac565b805180835260209291819084018484015e5f828201840152601f01601f1916010190565b600435906001600160a01b038216820361018957565b602435906001600160a01b038216820361018957565b6060906003190112610189576004356001600160a01b038116810361018957906024356001600160a01b0381168103610189579060443590565b9181601f840112156101895782359167ffffffffffffffff8311610189576020838186019501011161018957565b90600182811c92168015610fc2575b6020831014610fae57565b634e487b7160e01b5f52602260045260245ffd5b91607f1691610fa3565b90601f8019910116810190811067ffffffffffffffff82111761092e57604052565b9060405191825f82549261100184610f94565b808452936001811690811561106c5750600114611028575b5061102692500383610fcc565b565b90505f9291925260205f20905f915b818310611050575050906020611026928201015f611019565b6020919350806001915483858901015201910190918492611037565b90506020925061102694915060ff191682840152151560051b8201015f611019565b67ffffffffffffffff811161092e57601f01601f191660200190565b9291926110b68261108e565b916110c46040519384610fcc565b829481845281830111610189578281602093845f960137010152565b6001600160a01b0390911691908215610bd3575f828152600260205260409020546001600160a01b0316611288575f828152600260205260409020546001600160a01b0316928290331515806111f3575b50846111c0575b805f52600360205260405f2060018154019055815f52600260205260405f20816bffffffffffffffffffffffff60a01b825416179055847fddf252ad1be2c89b69c2b068fc378daa952ba7f163c4a11628f55a4df523b3ef5f80a46001600160a01b03168083036111a857505050565b6364283d7b60e01b5f5260045260245260445260645ffd5b5f82815260046020526040902080546001600160a01b0319169055845f52600360205260405f205f198154019055611138565b90915080611237575b156112095782905f611131565b828461122157637e27328960e01b5f5260045260245ffd5b63177e802f60e01b5f523360045260245260445ffd5b503384148015611266575b806111fc57505f838152600460205260409020546001600160a01b031633146111fc565b505f84815260056020908152604080832033845290915290205460ff16611242565b60405162461bcd60e51b815260206004820152602a60248201527f5365616c6572536c656576653a20736f756c626f756e64202d206e6f6e2d7472604482015269616e7366657261626c6560b01b6064820152608490fd5b601f82116112ed57505050565b5f5260205f20906020601f840160051c83019310611325575b601f0160051c01905b81811061131a575050565b5f815560010161130f565b9091508190611306565b908060209392818452848401375f828201840152601f01601f1916010190565b61135881611402565b506020906040516113698382610fcc565b5f8152815f526006835261137f60405f20610fee565b8151156113fb57808491516113bd5750505061139a90611402565b505f6040516113a98382610fcc565b526113b76040519182610fcc565b5f815290565b6113f8935081906040519584879551918291018487015e8401908282015f8152815193849201905e01015f815203601f198101835282610fcc565b90565b9250505090565b5f818152600260205260409020546001600160a01b0316908115611424575090565b637e27328960e01b5f5260045260245ffd5b6007546001600160a01b0316330361144a57565b63118cdaa760e01b5f523360045260245ffd5b823b61146b575b5050505050565b604051630a85bd0160e11b81526001600160a01b0391821660048201529181166024830152604482019390935260806064820152911691602090829081906114b7906084830190610edc565b03815f865af15f918161154e575b5061151a57503d15611513573d6114db8161108e565b906114e96040519283610fcc565b81523d5f602083013e5b8051908161150e5782633250574960e11b5f5260045260245ffd5b602001fd5b60606114f3565b6001600160e01b03191663757a42ff60e11b0161153c57505f80808080611464565b633250574960e11b5f5260045260245ffd5b9091506020813d60201161158b575b8161156a60209383610fcc565b8101031261018957516001600160e01b03198116810361018957905f6114c5565b3d915061155d56fea26469706673582212203e2d983fa2572ed423d85b6a823f13db6332a0940df2dd02ccd08509b62f943b64736f6c634300081c0033",
  "linkReferences": {},
  "deployedLinkReferences": {}
}