{
  "_format": "hh-sol-artifact-1",
  "contractName": "SealerMirror",
  "sourceName": "contracts/SealerMirror.sol",
  "abi": [
    {
      "inputs": [
        {
          "internalType": "address",
          "name": "initialOwner",
          "type": "address"
        }
      ],
      "stateMutability": "nonpayable",
      "type": "constructor"
    },
    {
      "inputs": [
        {
          "internalType": "address",
          "name": "sender",
          "type": "address"
        },
        {
          "internalType": "uint256",
          "name": "tokenId",
          "type": "uint256"
        },
        {
          "internalType": "address",
          "name": "owner",
          "type": "address"
        }
      ],
      "name": "ERC721IncorrectOwner",
      "type": "error"
    },
    {
      "inputs": [
        {
          "internalType": "address",
          "name": "operator",
          "type": "address"
        },
        {
          "internalType": "uint256",
          "name": "tokenId",
          "type": "uint256"
        }
      ],
      "name": "ERC721InsufficientApproval",
      "type": "error"
    },
    {
      "inputs": [
        {
          "internalType": "address",
          "name": "approver",
          "type": "address"
        }
      ],
      "name": "ERC721InvalidApprover",
      "type": "error"
    },
    {
      "inputs": [
        {
          "internalType": "address",
          "name": "operator",
          "type": "address"
        }
      ],
      "name": "ERC721InvalidOperator",
      "type": "error"
    },
    {
      "inputs": [
        {
          "internalType": "address",
          "name": "owner",
          "type": "address"
        }
      ],
      "name": "ERC721InvalidOwner",
      "type": "error"
    },
    {
      "inputs": [
        {
          "internalType": "address",
          "name": "receiver",
          "type": "address"
        }
      ],
      "name": "ERC721InvalidReceiver",
      "type": "error"
    },
    {
      "inputs": [
        {
          "internalType": "address",
          "name": "sender",
          "type": "address"
        }
      ],
      "name": "ERC721InvalidSender",
      "type": "error"
    },
    {
      "inputs": [
        {
          "internalType": "uint256",
          "name": "tokenId",
          "type": "uint256"
        }
      ],
      "name": "ERC721NonexistentToken",
      "type": "error"
    },
    {
      "inputs": [
        {
          "internalType": "address",
          "name": "owner",
          "type": "address"
        }
      ],
      "name": "OwnableInvalidOwner",
      "type": "error"
    },
    {
      "inputs": [
        {
          "internalType": "address",
          "name": "account",
          "type": "address"
        }
      ],
      "name": "OwnableUnauthorizedAccount",
      "type": "error"
    },
    {
      "anonymous": false,
      "inputs": [
        {
          "indexed": true,
          "internalType": "address",
          "name": "owner",
          "type": "address"
        },
        {
          "indexed": true,
          "internalType": "address",
          "name": "approved",
          "type": "address"
        },
        {
          "indexed": true,
          "internalType": "uint256",
          "name": "tokenId",
          "type": "uint256"
        }
      ],
      "name": "Approval",
      "type": "event"
    },
    {
      "anonymous": false,
      "inputs": [
        {
          "indexed": true,
          "internalType": "address",
          "name": "owner",
          "type": "address"
        },
        {
          "indexed": true,
          "internalType": "address",
          "name": "operator",
          "type": "address"
        },
        {
          "indexed": false,
          "internalType": "bool",
          "name": "approved",
          "type": "bool"
        }
      ],
      "name": "ApprovalForAll",
      "type": "event"
    },
    {
      "anonymous": false,
      "inputs": [
        {
          "indexed": false,
          "internalType": "uint256",
          "name": "_fromTokenId",
          "type": "uint256"
        },
        {
          "indexed": false,
          "internalType": "uint256",
          "name": "_toTokenId",
          "type": "uint256"
        }
      ],
      "name": "BatchMetadataUpdate",
      "type": "event"
    },
    {
      "anonymous": false,
      "inputs": [
        {
          "indexed": false,
          "internalType": "uint256",
          "name": "_tokenId",
          "type": "uint256"
        }
      ],
      "name": "MetadataUpdate",
      "type": "event"
    },
    {
      "anonymous": false,
      "inputs": [
        {
          "indexed": true,
          "internalType": "uint256",
          "name": "tokenId",
          "type": "uint256"
        },
        {
          "indexed": true,
          "internalType": "address",
          "name": "originalOwner",
          "type": "address"
        },
        {
          "indexed": false,
          "internalType": "string",
          "name": "originalChain",
          "type": "string"
        },
        {
          "indexed": false,
          "internalType": "string",
          "name": "originalContract",
          "type": "string"
        },
        {
          "indexed": false,
          "internalType": "string",
          "name": "originalTokenId",
          "type": "string"
        }
      ],
      "name": "MirrorInvalidated",
      "type": "event"
    },
    {
      "anonymous": false,
      "inputs": [
        {
          "indexed": true,
          "internalType": "uint256",
          "name": "tokenId",
          "type": "uint256"
        },
        {
          "indexed": true,
          "internalType": "address",
          "name": "recipient",
          "type": "address"
        },
        {
          "indexed": false,
          "internalType": "string",
          "name": "originalChain",
          "type": "string"
        },
        {
          "indexed": false,
          "internalType": "string",
          "name": "originalContract",
          "type": "string"
        },
        {
          "indexed": false,
          "internalType": "string",
          "name": "originalTokenId",
          "type": "string"
        },
        {
          "indexed": false,
          "internalType": "string",
          "name": "attestationTxHash",
          "type": "string"
        },
        {
          "indexed": false,
          "internalType": "string",
          "name": "paymentChain",
          "type": "string"
        }
      ],
      "name": "MirrorMinted",
      "type": "event"
    },
    {
      "anonymous": false,
      "inputs": [
        {
          "indexed": true,
          "internalType": "uint256",
          "name": "tokenId",
          "type": "uint256"
        },
        {
          "indexed": false,
          "internalType": "string",
          "name": "newOriginalChain",
          "type": "string"
        },
        {
          "indexed": false,
          "internalType": "string",
          "name": "newOriginalContract",
          "type": "string"
        },
        {
          "indexed": false,
          "internalType": "string",
          "name": "newOriginalTokenId",
          "type": "string"
        },
        {
          "indexed": false,
          "internalType": "address",
          "name": "newOriginalOwner",
          "type": "address"
        }
      ],
      "name": "MirrorUpdated",
      "type": "event"
    },
    {
      "anonymous": false,
      "inputs": [
        {
          "indexed": true,
          "internalType": "address",
          "name": "previousOwner",
          "type": "address"
        },
        {
          "indexed": true,
          "internalType": "address",
          "name": "newOwner",
          "type": "address"
        }
      ],
      "name": "OwnershipTransferred",
      "type": "event"
    },
    {
      "anonymous": false,
      "inputs": [
        {
          "indexed": true,
          "internalType": "address",
          "name": "from",
          "type": "address"
        },
        {
          "indexed": true,
          "internalType": "address",
          "name": "to",
          "type": "address"
        },
        {
          "indexed": true,
          "internalType": "uint256",
          "name": "tokenId",
          "type": "uint256"
        }
      ],
      "name": "Transfer",
      "type": "event"
    },
    {
      "inputs": [
        {
          "internalType": "address",
          "name": "to",
          "type": "address"
        },
        {
          "internalType": "uint256",
          "name": "tokenId",
          "type": "uint256"
        }
      ],
      "name": "approve",
      "outputs": [],
      "stateMutability": "nonpayable",
      "type": "function"
    },
    {
      "inputs": [
        {
          "internalType": "address",
          "name": "owner",
          "type": "address"
        }
      ],
      "name": "balanceOf",
      "outputs": [
        {
          "internalType": "uint256",
          "name": "",
          "type": "uint256"
        }
      ],
      "stateMutability": "view",
      "type": "function"
    },
    {
      "inputs": [
        {
          "internalType": "uint256",
          "name": "tokenId",
          "type": "uint256"
        }
      ],
      "name": "getApproved",
      "outputs": [
        {
          "internalType": "address",
          "name": "",
          "type": "address"
        }
      ],
      "stateMutability": "view",
      "type": "function"
    },
    {
      "inputs": [
        {
          "internalType": "uint256",
          "name": "tokenId",
          "type": "uint256"
        }
      ],
      "name": "invalidate",
      "outputs": [],
      "stateMutability": "nonpayable",
      "type": "function"
    },
    {
      "inputs": [
        {
          "internalType": "address",
          "name": "owner",
          "type": "address"
        },
        {
          "internalType": "address",
          "name": "operator",
          "type": "address"
        }
      ],
      "name": "isApprovedForAll",
      "outputs": [
        {
          "internalType": "bool",
          "name": "",
          "type": "bool"
        }
      ],
      "stateMutability": "view",
      "type": "function"
    },
    {
      "inputs": [
        {
          "components": [
            {
              "internalType": "address",
              "name": "recipient",
              "type": "address"
            },
            {
              "internalType": "string",
              "name": "tokenURI",
              "type": "string"
            },
            {
              "internalType": "string",
              "name": "originalChain",
              "type": "string"
            },
            {
              "internalType": "string",
              "name": "originalContract",
              "type": "string"
            },
            {
              "internalType": "string",
              "name": "originalTokenId",
              "type": "string"
            },
            {
              "internalType": "string",
              "name": "attestationTxHash",
              "type": "string"
            },
            {
              "internalType": "string",
              "name": "paymentChain",
              "type": "string"
            }
          ],
          "internalType": "struct SealerMirror.MintParams",
          "name": "p",
          "type": "tuple"
        }
      ],
      "name": "mintMirror",
      "outputs": [
        {
          "internalType": "uint256",
          "name": "",
          "type": "uint256"
        }
      ],
      "stateMutability": "nonpayable",
      "type": "function"
    },
    {
      "inputs": [
        {
          "internalType": "uint256",
          "name": "",
          "type": "uint256"
        }
      ],
      "name": "mirrors",
      "outputs": [
        {
          "internalType": "string",
          "name": "originalChain",
          "type": "string"
        },
        {
          "internalType": "string",
          "name": "originalContract",
          "type": "string"
        },
        {
          "internalType": "string",
          "name": "originalTokenId",
          "type": "string"
        },
        {
          "internalType": "address",
          "name": "originalOwner",
          "type": "address"
        },
        {
          "internalType": "string",
          "name": "attestationTxHash",
          "type": "string"
        },
        {
          "internalType": "string",
          "name": "paymentChain",
          "type": "string"
        },
        {
          "internalType": "bool",
          "name": "invalidated",
          "type": "bool"
        }
      ],
      "stateMutability": "view",
      "type": "function"
    },
    {
      "inputs": [],
      "name": "name",
      "outputs": [
        {
          "internalType": "string",
          "name": "",
          "type": "string"
        }
      ],
      "stateMutability": "view",
      "type": "function"
    },
    {
      "inputs": [],
      "name": "operator",
      "outputs": [
        {
          "internalType": "address",
          "name": "",
          "type": "address"
        }
      ],
      "stateMutability": "view",
      "type": "function"
    },
    {
      "inputs": [],
      "name": "owner",
      "outputs": [
        {
          "internalType": "address",
          "name": "",
          "type": "address"
        }
      ],
      "stateMutability": "view",
      "type": "function"
    },
    {
      "inputs": [
        {
          "internalType": "uint256",
          "name": "tokenId",
          "type": "uint256"
        }
      ],
      "name": "ownerOf",
      "outputs": [
        {
          "internalType": "address",
          "name": "",
          "type": "address"
        }
      ],
      "stateMutability": "view",
      "type": "function"
    },
    {
      "inputs": [],
      "name": "renounceOwnership",
      "outputs": [],
      "stateMutability": "nonpayable",
      "type": "function"
    },
    {
      "inputs": [
        {
          "internalType": "address",
          "name": "from",
          "type": "address"
        },
        {
          "internalType": "address",
          "name": "to",
          "type": "address"
        },
        {
          "internalType": "uint256",
          "name": "tokenId",
          "type": "uint256"
        }
      ],
      "name": "safeTransferFrom",
      "outputs": [],
      "stateMutability": "nonpayable",
      "type": "function"
    },
    {
      "inputs": [
        {
          "internalType": "address",
          "name": "from",
          "type": "address"
        },
        {
          "internalType": "address",
          "name": "to",
          "type": "address"
        },
        {
          "internalType": "uint256",
          "name": "tokenId",
          "type": "uint256"
        },
        {
          "internalType": "bytes",
          "name": "data",
          "type": "bytes"
        }
      ],
      "name": "safeTransferFrom",
      "outputs": [],
      "stateMutability": "nonpayable",
      "type": "function"
    },
    {
      "inputs": [
        {
          "internalType": "address",
          "name": "operator",
          "type": "address"
        },
        {
          "internalType": "bool",
          "name": "approved",
          "type": "bool"
        }
      ],
      "name": "setApprovalForAll",
      "outputs": [],
      "stateMutability": "nonpayable",
      "type": "function"
    },
    {
      "inputs": [
        {
          "internalType": "address",
          "name": "_operator",
          "type": "address"
        }
      ],
      "name": "setOperator",
      "outputs": [],
      "stateMutability": "nonpayable",
      "type": "function"
    },
    {
      "inputs": [
        {
          "internalType": "bytes4",
          "name": "interfaceId",
          "type": "bytes4"
        }
      ],
      "name": "supportsInterface",
      "outputs": [
        {
          "internalType": "bool",
          "name": "",
          "type": "bool"
        }
      ],
      "stateMutability": "view",
      "type": "function"
    },
    {
      "inputs": [],
      "name": "symbol",
      "outputs": [
        {
          "internalType": "string",
          "name": "",
          "type": "string"
        }
      ],
      "stateMutability": "view",
      "type": "function"
    },
    {
      "inputs": [
        {
          "internalType": "uint256",
          "name": "tokenId",
          "type": "uint256"
        }
      ],
      "name": "tokenURI",
      "outputs": [
        {
          "internalType": "string",
          "name": "",
          "type": "string"
        }
      ],
      "stateMutability": "view",
      "type": "function"
    },
    {
      "inputs": [
        {
          "internalType": "address",
          "name": "from",
          "type": "address"
        },
        {
          "internalType": "address",
          "name": "to",
          "type": "address"
        },
        {
          "internalType": "uint256",
          "name": "tokenId",
          "type": "uint256"
        }
      ],
      "name": "transferFrom",
      "outputs": [],
      "stateMutability": "nonpayable",
      "type": "function"
    },
    {
      "inputs": [
        {
          "internalType": "address",
          "name": "newOwner",
          "type": "address"
        }
      ],
      "name": "transferOwnership",
      "outputs": [],
      "stateMutability": "nonpayable",
      "type": "function"
    },
    {
      "inputs": [
        {
          "internalType": "uint256",
          "name": "tokenId",
          "type": "uint256"
        },
        {
          "internalType": "string",
          "name": "tokenURI_",
          "type": "string"
        },
        {
          "internalType": "string",
          "name": "newOriginalChain",
          "type": "string"
        },
        {
          "internalType": "string",
          "name": "newOriginalContract",
          "type": "string"
        },
        {
          "internalType": "string",
          "name": "newOriginalTokenId",
          "type": "string"
        },
        {
          "internalType": "address",
          "name": "newOriginalOwner",
          "type": "address"
        },
        {
          "internalType": "string",
          "name": "newAttestationTxHash",
          "type": "string"
        }
      ],
      "name": "updateMirror",
      "outputs": [],
      "stateMutability": "nonpayable",
      "type": "function"
    }
  ],
  "bytecode": "0x60806040523461039c576125e46020813803918261001c816103a0565b93849283398101031261039c57516001600160a01b0381169081900361039c5761004660406103a0565b90600d82526c29b2b0b632b91026b4b93937b960991b602083015261006b60406103a0565b600681526526a4a92927a960d11b602082015282519091906001600160401b0381116102b0575f54600181811c91168015610392575b602082101461029257601f8111610330575b506020601f82116001146102cf57819293945f926102c4575b50508160011b915f199060031b1c1916175f555b81516001600160401b0381116102b057600154600181811c911680156102a6575b602082101461029257601f811161022f575b50602092601f82116001146101ce57928192935f926101c3575b50508160011b915f199060031b1c1916176001555b80156101b057600780546001600160a01b031981168317909155604051919081906001600160a01b03167f8be0079c531659141344cd1fd0a4f28419497f9722a3daafe3b4186f6b6457e05f80a3600980546001600160a01b03191691909117905561221e90816103c68239f35b631e4fbdf760e01b5f525f60045260245ffd5b015190505f8061012d565b601f1982169360015f52805f20915f5b86811061021757508360019596106101ff575b505050811b01600155610142565b01515f1960f88460031b161c191690555f80806101f1565b919260206001819286850151815501940192016101de565b60015f527fb10e2d527612073b26eecdfd717e6a320cf44b4afac2b0732d9fcbe2b7fa0cf6601f830160051c81019160208410610288575b601f0160051c01905b81811061027d5750610113565b5f8155600101610270565b9091508190610267565b634e487b7160e01b5f52602260045260245ffd5b90607f1690610101565b634e487b7160e01b5f52604160045260245ffd5b015190505f806100cc565b601f198216905f8052805f20915f5b81811061031857509583600195969710610300575b505050811b015f556100e0565b01515f1960f88460031b161c191690555f80806102f3565b9192602060018192868b0151815501940192016102de565b5f80527f290decd9548b62a8d60345a988386fc84ba6bc95484008f6362f93160ef3e563601f830160051c81019160208410610388575b601f0160051c01905b81811061037d57506100b3565b5f8155600101610370565b9091508190610367565b90607f16906100a1565b5f80fd5b6040519190601f01601f191682016001600160401b038111838210176102b05760405256fe6080806040526004361015610012575f80fd5b5f3560e01c90816301ffc9a71461186f5750806306fdde03146117cd578063081812fc14611791578063095ea7b3146116a75780631ea1afdb1461154e57806323b872dd1461153757806342842e0e14611508578063570ca735146114e05780636352211e146114b057806370a082311461145f578063715018a6146114045780637517231a146113255780638cb16804146109bd5780638da5cb5b1461099557806395d89b41146108cb578063a22cb4651461080e578063b3ab15fb146107cb578063b88d4fde1461075e578063c87b56dd14610727578063d80628d5146101ef578063e985e9c5146101985763f2fde38b1461010e575f80fd5b3461019457602036600319011261019457610127611918565b61012f611f7d565b6001600160a01b0316801561018157600780546001600160a01b0319811683179091556001600160a01b03167f8be0079c531659141344cd1fd0a4f28419497f9722a3daafe3b4186f6b6457e05f80a3005b631e4fbdf760e01b5f525f60045260245ffd5b5f80fd5b34610194576040366003190112610194576101b1611918565b6101b961192e565b9060018060a01b03165f52600560205260405f209060018060a01b03165f52602052602060ff60405f2054166040519015158152f35b346101945760e0366003190112610194576004356024356001600160401b03811161019457610222903690600401611ac8565b91906044356001600160401b03811161019457610243903690600401611ac8565b90916064356001600160401b03811161019457610264903690600401611ac8565b906084356001600160401b03811161019457610284903690600401611ac8565b91909260a4359460018060a01b0386168096036101945760c4356001600160401b038111610194576103096102c061030f923690600401611ac8565b93909c60018060a01b036009541633148015610713575b6102e090611af5565b5f8d815260026020526040902054610302906001600160a01b03161515611b30565b3691611a92565b8a611fa4565b885f52600a60205260405f206001600160401b0388116105b45761033d88610337835461197e565b83611e27565b5f88601f81116001146106af5780610369925f916106a4575b508160011b915f199060031b1c19161790565b90555b885f52600a602052600160405f20016001600160401b0383116105b45761039783610337835461197e565b5f83601f811160011461064157806103c2925f9161063657508160011b915f199060031b1c19161790565b90555b885f52600a602052600260405f20016001600160401b0385116105b4576103f085610337835461197e565b5f85601f81116001146105d3578061041b925f916105c857508160011b915f199060031b1c19161790565b90555b5f898152600a602052604090206003810180546001600160a01b03191688179055600401906001600160401b0381116105b4576104658161045f845461197e565b84611e27565b5f601f821160011461052357916104c0826104ff959361050d999897957f7f02a097685965bcfbd72e480db4ed59d623d6c5094cd2a32c0d1c31fe9e0c489e9f5f92610518575b50508160011b915f199060031b1c19161790565b90555b8a5f52600a602052600660405f200160ff1981541690556104f1604051998a9960808b5260808b0191611e76565b9188830360208a0152611e76565b918583036040870152611e76565b9060608301520390a2005b013590508f806104ac565b601f19821690835f5260205f20915f5b81811061059c57509261050d98979694927f7f02a097685965bcfbd72e480db4ed59d623d6c5094cd2a32c0d1c31fe9e0c489d9e600193836104ff999710610583575b505050811b0190556104c3565b01355f19600384901b60f8161c191690558e8080610576565b8e830135845560019093019260209283019201610533565b634e487b7160e01b5f52604160045260245ffd5b90508801358e610356565b50601f19861690825f528660205f20925f5b81811061061b575010610602575b5050600185811b01905561041e565b8701355f19600388901b60f8161c191690558b806105f3565b8a84013585556001909401936020938401938a9350016105e5565b90508601358e610356565b50601f19841690825f528460205f20925f5b818110610689575010610670575b5050600183811b0190556103c5565b8501355f19600386901b60f8161c191690558b80610661565b88840135855560019094019360209384019388935001610653565b90508b01358e610356565b50601f19891690825f528960205f20925f5b8d8282106106f9575050106106e0575b5050600188811b01905561036c565b8a01355f1960038b901b60f8161c191690558b806106d1565b84013585556001909401936020938401938d9350016106c1565b506007546001600160a01b031633146102d7565b346101945760203660031901126101945761075a610746600435611e96565b6040519182916020835260208301906118f4565b0390f35b3461019457608036600319011261019457610777611918565b61077f61192e565b90604435606435926001600160401b0384116101945736602385011215610194576107b76107c9943690602481600401359101611a92565b926107c3838383611bf4565b336120c4565b005b34610194576020366003190112610194576107e4611918565b6107ec611f7d565b600980546001600160a01b0319166001600160a01b0392909216919091179055005b3461019457604036600319011261019457610827611918565b60243590811515908183036101945733156108b8576001600160a01b03169182156108a55761087790335f52600560205260405f20845f5260205260405f209060ff801983541691151516179055565b6040519081527f17307eab39ab6107e8899845ad3d59bd9653f200f220920489ca2b5937696c3160203392a3005b82630b61174360e31b5f5260045260245ffd5b63a9fbf51f60e01b5f525f60045260245ffd5b34610194575f366003190112610194576040515f6001546108eb8161197e565b80845290600181169081156109715750600114610913575b61075a83610746818503826119b6565b60015f9081527fb10e2d527612073b26eecdfd717e6a320cf44b4afac2b0732d9fcbe2b7fa0cf6939250905b80821061095757509091508101602001610746610903565b91926001816020925483858801015201910190929161093f565b60ff191660208086019190915291151560051b840190910191506107469050610903565b34610194575f366003190112610194576007546040516001600160a01b039091168152602090f35b34610194576020366003190112610194576004356001600160401b0381116101945760e06003198236030112610194576009546001600160a01b031633148015611311575b610a0b90611af5565b600854905f1982146112fd5760018201600855610a2a81600401611de1565b91602091604051610a3b84826119b6565b5f81526001600160a01b0385169485156112ea575f8481526002865260409020546001600160a01b03166112a5575f8481526002865260409020546001600160a01b03168015159081611274575b875f526003875260405f2060018154019055855f526002875260405f20886bffffffffffffffffffffffff60a01b8254161790558588827fddf252ad1be2c89b69c2b068fc378daa952ba7f163c4a11628f55a4df523b3ef5f80a450611261573b611149575b5090919250610b10610b0a6103026024840184600401611df5565b83611fa4565b610b206044820182600401611df5565b9091610b326064820182600401611df5565b9092610b446084840184600401611df5565b959091610b5385600401611de1565b610b6360a4870187600401611df5565b9091610b7560c4890189600401611df5565b9590966040519b60e08d01968d88106001600160401b038911176105b4578f9c610bef9b8f610bb3610bc997610bbc95610be39d6040523691611a92565b90523691611a92565b9b8d019b8c523691611a92565b60408b01526001600160a01b031660608a01523691611a92565b60808701523691611a92565b60a08401525f60c0840152835f52600a855260405f209183518051906001600160401b0382116105b457610c2d82610c27875461197e565b87611e27565b8790601f83116001146110e657610c5a92915f9183610fa15750508160011b915f199060031b1c19161790565b83555b518051906001600160401b0382116105b457610c8982610c80600187015461197e565b60018701611e27565b8690601f831160011461107d57610cb692915f91836110725750508160011b915f199060031b1c19161790565b60018301555b6002820160408401518051906001600160401b0382116105b457610cea82610ce4855461197e565b85611e27565b8790601f831160011461100f57610d1792915f9183610fa15750508160011b915f199060031b1c19161790565b90555b60608301516003830180546001600160a01b0319166001600160a01b03929092169190911790556080830151805160048401916001600160401b0382116105b457610d6982610ce4855461197e565b8790601f8311600114610fac57610d9692915f9183610fa15750508160011b915f199060031b1c19161790565b90555b60a0830151918251936001600160401b0385116105b457848694610dce8997610dc5600587015461197e565b60058701611e27565b8690601f8311600114610f30579180610dff9260c095945f92610f255750508160011b915f199060031b1c19161790565b60058401555b015115159060060190610e23919060ff801983541691151516179055565b610e2f60048201611de1565b90610e406044820160048301611df5565b919092606482018260040190610e5591611df5565b9290610e676084830160048401611df5565b610e7760a4850160048601611df5565b93909460c481019060040190610e8c91611df5565b9b90976040519a8b9a60a08c5260a08c0190610ea792611e76565b918a8303908b0152610eb892611e76565b908782036040890152610eca92611e76565b908582036060870152610edc92611e76565b83810360808501526001600160a01b0390911695610ef992611e76565b037f9f7f859c131c0369dc4abb51e927761cc6ecabc7d7ce10d48195df186b77329c91a3604051908152f35b015190508b806104ac565b90600585015f52875f20915f5b89601f1986168210610f8857505091839160019360c09695601f19811610610f70575b505050811b016005840155610e05565b01515f1960f88460031b161c191690558a8080610f60565b8383015185558b99506001909401939283019201610f3d565b0151905089806104ac565b90601f19831691845f52895f20925f5b8b828210610ff9575050908460019594939210610fe1575b505050811b019055610d99565b01515f1960f88460031b161c19169055888080610fd4565b6001859682939686015181550195019301610fbc565b90601f19831691845f52895f20925f5b8b82821061105c575050908460019594939210611044575b505050811b019055610d1a565b01515f1960f88460031b161c19169055888080611037565b600185968293968601518155019501930161101f565b0151905088806104ac565b90601f19831691600186015f52885f20925f5b8a8282106110d05750509084600195949392106110b8575b505050811b016001830155610cbc565b01515f1960f88460031b161c191690558780806110a8565b6001859682939686015181550195019301611090565b90601f19831691865f52895f20925f5b8b82821061113357505090846001959493921061111b575b505050811b018355610c5d565b01515f1960f88460031b161c1916905588808061110e565b60018596829396860151815501950193016110f6565b836111829160405180938192630a85bd0160e11b83523360048401525f60248401528760448401526080606484015260848301906118f4565b03815f895af15f9181611221575b506111e7575050503d5f146111df573d906111aa82611a77565b916111b860405193846119b6565b82523d5f8284013e5b815191826111dc5783633250574960e11b5f5260045260245ffd5b01fd5b6060906111c1565b929391929091906001600160e01b03191663757a42ff60e11b0161120f575090829184610aef565b633250574960e11b5f5260045260245ffd5b9091508481813d831161125a575b61123981836119b6565b8101031261019457516001600160e01b031981168103610194579086611190565b503d61122f565b6339e3563760e11b5f525f60045260245ffd5b5f8681526004602052604080822080546001600160a01b031916905582825260038952902080545f19019055610a89565b60405162461bcd60e51b815260048101869052601d60248201527f536f756c626f756e643a207472616e73666572732064697361626c65640000006044820152606490fd5b633250574960e11b5f525f60045260245ffd5b634e487b7160e01b5f52601160045260245ffd5b506007546001600160a01b03163314610a02565b34610194576020366003190112610194576004355f52600a6020526113bb60405f20611350816119d7565b906113f8611360600183016119d7565b916113ea611370600283016119d7565b60038301546001600160a01b0316906113d761138e600486016119d7565b916113c960ff60066113a260058a016119d7565b98015416986040519b8c9b60e08d5260e08d01906118f4565b908b820360208d01526118f4565b9089820360408b01526118f4565b91606088015286820360808801526118f4565b9084820360a08601526118f4565b90151560c08301520390f35b34610194575f3660031901126101945761141c611f7d565b600780546001600160a01b031981169091555f906001600160a01b03167f8be0079c531659141344cd1fd0a4f28419497f9722a3daafe3b4186f6b6457e08280a3005b34610194576020366003190112610194576001600160a01b03611480611918565b16801561149d575f526003602052602060405f2054604051908152f35b6322718ad960e21b5f525f60045260245ffd5b346101945760203660031901126101945760206114ce600435611f49565b6040516001600160a01b039091168152f35b34610194575f366003190112610194576009546040516001600160a01b039091168152602090f35b34610194576107c961151936611944565b90604051926115296020856119b6565b5f84526107c3838383611bf4565b34610194576107c961154836611944565b91611bf4565b346101945760203660031901126101945760043560018060a01b036009541633148015611693575b61157f90611af5565b5f818152600260205260409020546115a1906001600160a01b03161515611b30565b805f52600a60205260ff600660405f20015416611658575f818152600a60205260409081902060068101805460ff191660019081179091556003820154925160608082526001600160a01b039490941694937fc65fbf3b4153801b577be4f3352e3f7d85280c66948aa0e481e8f5d3369cfc5c939192839261165392600282019261164592908101916116379190870190611b73565b908582036020870152611b73565b908382036040850152611b73565b0390a3005b60405162461bcd60e51b8152602060048201526013602482015272105b1c9958591e481a5b9d985b1a59185d1959606a1b6044820152606490fd5b506007546001600160a01b03163314611576565b34610194576040366003190112610194576116c0611918565b6024356116cc81611f49565b3315158061177e575b80611751575b61173e5781906001600160a01b0384811691167f8c5be1e5ebec7d5bd14f71427d1e84f3dd0314c0f7b2291e5b200ac8c7c3b9255f80a45f90815260046020526040902080546001600160a01b0319166001600160a01b03909216919091179055005b63a9fbf51f60e01b5f523360045260245ffd5b506001600160a01b0381165f90815260056020908152604080832033845290915290205460ff16156116db565b506001600160a01b0381163314156116d5565b34610194576020366003190112610194576004356117ae81611f49565b505f526004602052602060018060a01b0360405f205416604051908152f35b34610194575f366003190112610194576040515f5f546117ec8161197e565b808452906001811690811561097157506001146118135761075a83610746818503826119b6565b5f8080527f290decd9548b62a8d60345a988386fc84ba6bc95484008f6362f93160ef3e563939250905b80821061185557509091508101602001610746610903565b91926001816020925483858801015201910190929161183d565b34610194576020366003190112610194576004359063ffffffff60e01b821680920361019457602091632483248360e11b81149081156118b1575b5015158152f35b6380ac58cd60e01b8114915081156118e3575b81156118d2575b50836118aa565b6301ffc9a760e01b149050836118cb565b635b5e139f60e01b811491506118c4565b805180835260209291819084018484015e5f828201840152601f01601f1916010190565b600435906001600160a01b038216820361019457565b602435906001600160a01b038216820361019457565b6060906003190112610194576004356001600160a01b038116810361019457906024356001600160a01b0381168103610194579060443590565b90600182811c921680156119ac575b602083101461199857565b634e487b7160e01b5f52602260045260245ffd5b91607f169161198d565b90601f801991011681019081106001600160401b038211176105b457604052565b9060405191825f8254926119ea8461197e565b8084529360018116908115611a555750600114611a11575b50611a0f925003836119b6565b565b90505f9291925260205f20905f915b818310611a39575050906020611a0f928201015f611a02565b6020919350806001915483858901015201910190918492611a20565b905060209250611a0f94915060ff191682840152151560051b8201015f611a02565b6001600160401b0381116105b457601f01601f191660200190565b929192611a9e82611a77565b91611aac60405193846119b6565b829481845281830111610194578281602093845f960137010152565b9181601f84011215610194578235916001600160401b038311610194576020838186019501011161019457565b15611afc57565b60405162461bcd60e51b815260206004820152600c60248201526b2737ba1037b832b930ba37b960a11b6044820152606490fd5b15611b3757565b60405162461bcd60e51b8152602060048201526014602482015273151bdad95b88191bd95cc81b9bdd08195e1a5cdd60621b6044820152606490fd5b5f9291815491611b828361197e565b8083529260018116908115611bd75750600114611b9e57505050565b5f9081526020812093945091925b838310611bbd575060209250010190565b600181602092949394548385870101520191019190611bac565b915050602093945060ff929192191683830152151560051b010190565b6001600160a01b03909116919082156112ea575f828152600260205260409020546001600160a01b0316611d9c575f828152600260205260409020546001600160a01b031692829033151580611d07575b5084611cd4575b805f52600360205260405f2060018154019055815f52600260205260405f20816bffffffffffffffffffffffff60a01b825416179055847fddf252ad1be2c89b69c2b068fc378daa952ba7f163c4a11628f55a4df523b3ef5f80a46001600160a01b0316808303611cbc57505050565b6364283d7b60e01b5f5260045260245260445260645ffd5b5f82815260046020526040902080546001600160a01b0319169055845f52600360205260405f205f198154019055611c4c565b90915080611d4b575b15611d1d5782905f611c45565b8284611d3557637e27328960e01b5f5260045260245ffd5b63177e802f60e01b5f523360045260245260445ffd5b503384148015611d7a575b80611d1057505f838152600460205260409020546001600160a01b03163314611d10565b505f84815260056020908152604080832033845290915290205460ff16611d56565b60405162461bcd60e51b815260206004820152601d60248201527f536f756c626f756e643a207472616e73666572732064697361626c65640000006044820152606490fd5b356001600160a01b03811681036101945790565b903590601e198136030182121561019457018035906001600160401b0382116101945760200191813603831361019457565b601f8211611e3457505050565b5f5260205f20906020601f840160051c83019310611e6c575b601f0160051c01905b818110611e61575050565b5f8155600101611e56565b9091508190611e4d565b908060209392818452848401375f828201840152601f01601f1916010190565b611e9f81611f49565b50602090604051611eb083826119b6565b5f8152815f5260068352611ec660405f206119d7565b815115611f425780849151611f0457505050611ee190611f49565b505f604051611ef083826119b6565b52611efe60405191826119b6565b5f815290565b611f3f935081906040519584879551918291018487015e8401908282015f8152815193849201905e01015f815203601f1981018352826119b6565b90565b9250505090565b5f818152600260205260409020546001600160a01b0316908115611f6b575090565b637e27328960e01b5f5260045260245ffd5b6007546001600160a01b03163303611f9157565b63118cdaa760e01b5f523360045260245ffd5b919091805f52600660205260405f2083516001600160401b0381116105b457611fd18161045f845461197e565b6020601f821160011461203c57816020949392612025927ff8e1a15aba9398e019f0b49df1a4fde98ee17ae345cb5f6b5e2c27f5033e8ce797985f926120315750508160011b915f199060031b1c19161790565b90555b604051908152a1565b015190505f806104ac565b601f19821695835f52815f20965f5b8181106120ac575096600192849260209796957ff8e1a15aba9398e019f0b49df1a4fde98ee17ae345cb5f6b5e2c27f5033e8ce7999a10612094575b505050811b019055612028565b01515f1960f88460031b161c191690555f8080612087565b8383015189556001909801976020938401930161204b565b823b6120d2575b5050505050565b604051630a85bd0160e11b81526001600160a01b03918216600482015291811660248301526044820193909352608060648201529116916020908290819061211e9060848301906118f4565b03815f865af15f91816121a3575b5061218157503d1561217a573d61214281611a77565b9061215060405192836119b6565b81523d5f602083013e5b805190816121755782633250574960e11b5f5260045260245ffd5b602001fd5b606061215a565b6001600160e01b03191663757a42ff60e11b0161120f57505f808080806120cb565b9091506020813d6020116121e0575b816121bf602093836119b6565b8101031261019457516001600160e01b03198116810361019457905f61212c565b3d91506121b256fea26469706673582212200acb61412a360c6e1ccd1d99a4b828f41a34828b56b6815326f8430864635bbb64736f6c634300081c0033",
  "linkReferences": {},
  "deployedLinkReferences": {}
}