{
  "_format": "hh-sol-artifact-1",
  "contractName": "SealerID",
  "sourceName": "contracts/SealerID.sol",
  "abi": [
    {
      "inputs": [
        {
          "internalType": "address",
          "name": "initialOwner",
          "type": "address"
        }
      ],
      "stateMutability": "nonpayable",
      "type": "constructor"
    },
    {
      "inputs": [
        {
          "internalType": "address",
          "name": "sender",
          "type": "address"
        },
        {
          "internalType": "uint256",
          "name": "tokenId",
          "type": "uint256"
        },
        {
          "internalType": "address",
          "name": "owner",
          "type": "address"
        }
      ],
      "name": "ERC721IncorrectOwner",
      "type": "error"
    },
    {
      "inputs": [
        {
          "internalType": "address",
          "name": "operator",
          "type": "address"
        },
        {
          "internalType": "uint256",
          "name": "tokenId",
          "type": "uint256"
        }
      ],
      "name": "ERC721InsufficientApproval",
      "type": "error"
    },
    {
      "inputs": [
        {
          "internalType": "address",
          "name": "approver",
          "type": "address"
        }
      ],
      "name": "ERC721InvalidApprover",
      "type": "error"
    },
    {
      "inputs": [
        {
          "internalType": "address",
          "name": "operator",
          "type": "address"
        }
      ],
      "name": "ERC721InvalidOperator",
      "type": "error"
    },
    {
      "inputs": [
        {
          "internalType": "address",
          "name": "owner",
          "type": "address"
        }
      ],
      "name": "ERC721InvalidOwner",
      "type": "error"
    },
    {
      "inputs": [
        {
          "internalType": "address",
          "name": "receiver",
          "type": "address"
        }
      ],
      "name": "ERC721InvalidReceiver",
      "type": "error"
    },
    {
      "inputs": [
        {
          "internalType": "address",
          "name": "sender",
          "type": "address"
        }
      ],
      "name": "ERC721InvalidSender",
      "type": "error"
    },
    {
      "inputs": [
        {
          "internalType": "uint256",
          "name": "tokenId",
          "type": "uint256"
        }
      ],
      "name": "ERC721NonexistentToken",
      "type": "error"
    },
    {
      "inputs": [
        {
          "internalType": "address",
          "name": "owner",
          "type": "address"
        }
      ],
      "name": "OwnableInvalidOwner",
      "type": "error"
    },
    {
      "inputs": [
        {
          "internalType": "address",
          "name": "account",
          "type": "address"
        }
      ],
      "name": "OwnableUnauthorizedAccount",
      "type": "error"
    },
    {
      "anonymous": false,
      "inputs": [
        {
          "indexed": true,
          "internalType": "address",
          "name": "owner",
          "type": "address"
        },
        {
          "indexed": true,
          "internalType": "address",
          "name": "approved",
          "type": "address"
        },
        {
          "indexed": true,
          "internalType": "uint256",
          "name": "tokenId",
          "type": "uint256"
        }
      ],
      "name": "Approval",
      "type": "event"
    },
    {
      "anonymous": false,
      "inputs": [
        {
          "indexed": true,
          "internalType": "address",
          "name": "owner",
          "type": "address"
        },
        {
          "indexed": true,
          "internalType": "address",
          "name": "operator",
          "type": "address"
        },
        {
          "indexed": false,
          "internalType": "bool",
          "name": "approved",
          "type": "bool"
        }
      ],
      "name": "ApprovalForAll",
      "type": "event"
    },
    {
      "anonymous": false,
      "inputs": [
        {
          "indexed": false,
          "internalType": "uint256",
          "name": "_fromTokenId",
          "type": "uint256"
        },
        {
          "indexed": false,
          "internalType": "uint256",
          "name": "_toTokenId",
          "type": "uint256"
        }
      ],
      "name": "BatchMetadataUpdate",
      "type": "event"
    },
    {
      "anonymous": false,
      "inputs": [
        {
          "indexed": false,
          "internalType": "uint256",
          "name": "_tokenId",
          "type": "uint256"
        }
      ],
      "name": "MetadataUpdate",
      "type": "event"
    },
    {
      "anonymous": false,
      "inputs": [
        {
          "indexed": true,
          "internalType": "address",
          "name": "previousOwner",
          "type": "address"
        },
        {
          "indexed": true,
          "internalType": "address",
          "name": "newOwner",
          "type": "address"
        }
      ],
      "name": "OwnershipTransferred",
      "type": "event"
    },
    {
      "anonymous": false,
      "inputs": [
        {
          "indexed": true,
          "internalType": "uint256",
          "name": "tokenId",
          "type": "uint256"
        },
        {
          "indexed": true,
          "internalType": "address",
          "name": "recipient",
          "type": "address"
        },
        {
          "indexed": false,
          "internalType": "string",
          "name": "attestationTxHash",
          "type": "string"
        },
        {
          "indexed": false,
          "internalType": "string",
          "name": "tokenURI",
          "type": "string"
        }
      ],
      "name": "SealerIDMinted",
      "type": "event"
    },
    {
      "anonymous": false,
      "inputs": [
        {
          "indexed": true,
          "internalType": "uint256",
          "name": "tokenId",
          "type": "uint256"
        },
        {
          "indexed": true,
          "internalType": "address",
          "name": "recipient",
          "type": "address"
        },
        {
          "indexed": false,
          "internalType": "string",
          "name": "newAttestationTxHash",
          "type": "string"
        },
        {
          "indexed": false,
          "internalType": "string",
          "name": "newTokenURI",
          "type": "string"
        },
        {
          "indexed": false,
          "internalType": "uint256",
          "name": "renewalCount",
          "type": "uint256"
        }
      ],
      "name": "SealerIDRenewed",
      "type": "event"
    },
    {
      "anonymous": false,
      "inputs": [
        {
          "indexed": true,
          "internalType": "address",
          "name": "from",
          "type": "address"
        },
        {
          "indexed": true,
          "internalType": "address",
          "name": "to",
          "type": "address"
        },
        {
          "indexed": true,
          "internalType": "uint256",
          "name": "tokenId",
          "type": "uint256"
        }
      ],
      "name": "Transfer",
      "type": "event"
    },
    {
      "inputs": [
        {
          "internalType": "address",
          "name": "to",
          "type": "address"
        },
        {
          "internalType": "uint256",
          "name": "tokenId",
          "type": "uint256"
        }
      ],
      "name": "approve",
      "outputs": [],
      "stateMutability": "nonpayable",
      "type": "function"
    },
    {
      "inputs": [
        {
          "internalType": "uint256",
          "name": "",
          "type": "uint256"
        }
      ],
      "name": "attestationTxHash",
      "outputs": [
        {
          "internalType": "string",
          "name": "",
          "type": "string"
        }
      ],
      "stateMutability": "view",
      "type": "function"
    },
    {
      "inputs": [
        {
          "internalType": "address",
          "name": "owner",
          "type": "address"
        }
      ],
      "name": "balanceOf",
      "outputs": [
        {
          "internalType": "uint256",
          "name": "",
          "type": "uint256"
        }
      ],
      "stateMutability": "view",
      "type": "function"
    },
    {
      "inputs": [
        {
          "internalType": "uint256",
          "name": "tokenId",
          "type": "uint256"
        }
      ],
      "name": "getApproved",
      "outputs": [
        {
          "internalType": "address",
          "name": "",
          "type": "address"
        }
      ],
      "stateMutability": "view",
      "type": "function"
    },
    {
      "inputs": [
        {
          "internalType": "address",
          "name": "wallet",
          "type": "address"
        }
      ],
      "name": "getTokenId",
      "outputs": [
        {
          "internalType": "uint256",
          "name": "",
          "type": "uint256"
        }
      ],
      "stateMutability": "view",
      "type": "function"
    },
    {
      "inputs": [
        {
          "internalType": "address",
          "name": "",
          "type": "address"
        }
      ],
      "name": "hasSID",
      "outputs": [
        {
          "internalType": "bool",
          "name": "",
          "type": "bool"
        }
      ],
      "stateMutability": "view",
      "type": "function"
    },
    {
      "inputs": [
        {
          "internalType": "address",
          "name": "owner",
          "type": "address"
        },
        {
          "internalType": "address",
          "name": "operator",
          "type": "address"
        }
      ],
      "name": "isApprovedForAll",
      "outputs": [
        {
          "internalType": "bool",
          "name": "",
          "type": "bool"
        }
      ],
      "stateMutability": "view",
      "type": "function"
    },
    {
      "inputs": [
        {
          "internalType": "address",
          "name": "recipient",
          "type": "address"
        },
        {
          "internalType": "string",
          "name": "uri",
          "type": "string"
        },
        {
          "internalType": "string",
          "name": "_attestationTx",
          "type": "string"
        }
      ],
      "name": "mint",
      "outputs": [
        {
          "internalType": "uint256",
          "name": "",
          "type": "uint256"
        }
      ],
      "stateMutability": "nonpayable",
      "type": "function"
    },
    {
      "inputs": [],
      "name": "name",
      "outputs": [
        {
          "internalType": "string",
          "name": "",
          "type": "string"
        }
      ],
      "stateMutability": "view",
      "type": "function"
    },
    {
      "inputs": [
        {
          "internalType": "uint256",
          "name": "",
          "type": "uint256"
        }
      ],
      "name": "originalRecipient",
      "outputs": [
        {
          "internalType": "address",
          "name": "",
          "type": "address"
        }
      ],
      "stateMutability": "view",
      "type": "function"
    },
    {
      "inputs": [],
      "name": "owner",
      "outputs": [
        {
          "internalType": "address",
          "name": "",
          "type": "address"
        }
      ],
      "stateMutability": "view",
      "type": "function"
    },
    {
      "inputs": [
        {
          "internalType": "uint256",
          "name": "tokenId",
          "type": "uint256"
        }
      ],
      "name": "ownerOf",
      "outputs": [
        {
          "internalType": "address",
          "name": "",
          "type": "address"
        }
      ],
      "stateMutability": "view",
      "type": "function"
    },
    {
      "inputs": [
        {
          "internalType": "address",
          "name": "recipient",
          "type": "address"
        },
        {
          "internalType": "string",
          "name": "newUri",
          "type": "string"
        },
        {
          "internalType": "string",
          "name": "newAttestationTx",
          "type": "string"
        }
      ],
      "name": "renew",
      "outputs": [],
      "stateMutability": "nonpayable",
      "type": "function"
    },
    {
      "inputs": [
        {
          "internalType": "uint256",
          "name": "",
          "type": "uint256"
        }
      ],
      "name": "renewalCount",
      "outputs": [
        {
          "internalType": "uint256",
          "name": "",
          "type": "uint256"
        }
      ],
      "stateMutability": "view",
      "type": "function"
    },
    {
      "inputs": [],
      "name": "renounceOwnership",
      "outputs": [],
      "stateMutability": "nonpayable",
      "type": "function"
    },
    {
      "inputs": [
        {
          "internalType": "address",
          "name": "from",
          "type": "address"
        },
        {
          "internalType": "address",
          "name": "to",
          "type": "address"
        },
        {
          "internalType": "uint256",
          "name": "tokenId",
          "type": "uint256"
        }
      ],
      "name": "safeTransferFrom",
      "outputs": [],
      "stateMutability": "nonpayable",
      "type": "function"
    },
    {
      "inputs": [
        {
          "internalType": "address",
          "name": "from",
          "type": "address"
        },
        {
          "internalType": "address",
          "name": "to",
          "type": "address"
        },
        {
          "internalType": "uint256",
          "name": "tokenId",
          "type": "uint256"
        },
        {
          "internalType": "bytes",
          "name": "data",
          "type": "bytes"
        }
      ],
      "name": "safeTransferFrom",
      "outputs": [],
      "stateMutability": "nonpayable",
      "type": "function"
    },
    {
      "inputs": [
        {
          "internalType": "address",
          "name": "operator",
          "type": "address"
        },
        {
          "internalType": "bool",
          "name": "approved",
          "type": "bool"
        }
      ],
      "name": "setApprovalForAll",
      "outputs": [],
      "stateMutability": "nonpayable",
      "type": "function"
    },
    {
      "inputs": [
        {
          "internalType": "bytes4",
          "name": "interfaceId",
          "type": "bytes4"
        }
      ],
      "name": "supportsInterface",
      "outputs": [
        {
          "internalType": "bool",
          "name": "",
          "type": "bool"
        }
      ],
      "stateMutability": "view",
      "type": "function"
    },
    {
      "inputs": [],
      "name": "symbol",
      "outputs": [
        {
          "internalType": "string",
          "name": "",
          "type": "string"
        }
      ],
      "stateMutability": "view",
      "type": "function"
    },
    {
      "inputs": [
        {
          "internalType": "uint256",
          "name": "tokenId",
          "type": "uint256"
        }
      ],
      "name": "tokenURI",
      "outputs": [
        {
          "internalType": "string",
          "name": "",
          "type": "string"
        }
      ],
      "stateMutability": "view",
      "type": "function"
    },
    {
      "inputs": [],
      "name": "totalSupply",
      "outputs": [
        {
          "internalType": "uint256",
          "name": "",
          "type": "uint256"
        }
      ],
      "stateMutability": "view",
      "type": "function"
    },
    {
      "inputs": [
        {
          "internalType": "address",
          "name": "from",
          "type": "address"
        },
        {
          "internalType": "address",
          "name": "to",
          "type": "address"
        },
        {
          "internalType": "uint256",
          "name": "tokenId",
          "type": "uint256"
        }
      ],
      "name": "transferFrom",
      "outputs": [],
      "stateMutability": "nonpayable",
      "type": "function"
    },
    {
      "inputs": [
        {
          "internalType": "address",
          "name": "newOwner",
          "type": "address"
        }
      ],
      "name": "transferOwnership",
      "outputs": [],
      "stateMutability": "nonpayable",
      "type": "function"
    },
    {
      "inputs": [
        {
          "internalType": "address",
          "name": "",
          "type": "address"
        }
      ],
      "name": "walletToTokenId",
      "outputs": [
        {
          "internalType": "uint256",
          "name": "",
          "type": "uint256"
        }
      ],
      "stateMutability": "view",
      "type": "function"
    }
  ],
  "bytecode": "0x608060405234801561000f575f5ffd5b50604051611dc8380380611dc883398101604081905261002e91610119565b806040518060400160405280600981526020016814d9585b195c88125160ba1b8152506040518060400160405280600381526020016214d25160ea1b815250815f908161007b91906101de565b50600161008882826101de565b5050506001600160a01b0381166100b857604051631e4fbdf760e01b81525f600482015260240160405180910390fd5b6100c1816100c8565b5050610298565b600780546001600160a01b038381166001600160a01b0319831681179093556040519116919082907f8be0079c531659141344cd1fd0a4f28419497f9722a3daafe3b4186f6b6457e0905f90a35050565b5f60208284031215610129575f5ffd5b81516001600160a01b038116811461013f575f5ffd5b9392505050565b634e487b7160e01b5f52604160045260245ffd5b600181811c9082168061016e57607f821691505b60208210810361018c57634e487b7160e01b5f52602260045260245ffd5b50919050565b601f8211156101d957805f5260205f20601f840160051c810160208510156101b75750805b601f840160051c820191505b818110156101d6575f81556001016101c3565b50505b505050565b81516001600160401b038111156101f7576101f7610146565b61020b81610205845461015a565b84610192565b6020601f82116001811461023d575f83156102265750848201515b5f19600385901b1c1916600184901b1784556101d6565b5f84815260208120601f198516915b8281101561026c578785015182556020948501946001909201910161024c565b508482101561028957868401515f19600387901b60f8161c191681555b50505050600190811b01905550565b611b23806102a55f395ff3fe608060405234801561000f575f5ffd5b506004361061016d575f3560e01c806395d89b41116100d9578063bfe0b25d11610093578063e764dccc1161006e578063e764dccc1461033f578063e985e9c514610367578063f15376861461037a578063f2fde38b1461038d575f5ffd5b8063bfe0b25d14610306578063c87b56dd14610319578063da9fb1931461032c575f5ffd5b806395d89b4114610287578063990711901461028f5780639c2806c7146102a2578063a22cb465146102c1578063b88d4fde146102d4578063bb2890d2146102e7575f5ffd5b806342842e0e1161012a57806342842e0e146102135780636352211e146102265780636b9bb6f81461023957806370a082311461025b578063715018a61461026e5780638da5cb5b14610276575f5ffd5b806301ffc9a71461017157806306fdde0314610199578063081812fc146101ae578063095ea7b3146101d957806318160ddd146101ee57806323b872dd14610200575b5f5ffd5b61018461017f36600461149c565b6103a0565b60405190151581526020015b60405180910390f35b6101a16103ca565b60405161019091906114e5565b6101c16101bc3660046114f7565b610459565b6040516001600160a01b039091168152602001610190565b6101ec6101e7366004611529565b610480565b005b6008545b604051908152602001610190565b6101ec61020e366004611551565b61048f565b6101ec610221366004611551565b61051d565b6101c16102343660046114f7565b61053c565b61018461024736600461158b565b600a6020525f908152604090205460ff1681565b6101f261026936600461158b565b610546565b6101ec61058b565b6007546001600160a01b03166101c1565b6101a161059e565b6101f261029d3660046115e9565b6105ad565b6101f26102b036600461158b565b60096020525f908152604090205481565b6101ec6102cf366004611669565b610747565b6101ec6102e23660046116b6565b610752565b6101f26102f53660046114f7565b600c6020525f908152604090205481565b6101a16103143660046114f7565b61076a565b6101a16103273660046114f7565b610801565b6101ec61033a3660046115e9565b610882565b6101c161034d3660046114f7565b600d6020525f90815260409020546001600160a01b031681565b610184610375366004611793565b6109f6565b6101f261038836600461158b565b610a23565b6101ec61039b36600461158b565b610aaf565b5f6001600160e01b03198216632483248360e11b14806103c457506103c482610aec565b92915050565b60605f80546103d8906117c4565b80601f0160208091040260200160405190810160405280929190818152602001828054610404906117c4565b801561044f5780601f106104265761010080835404028352916020019161044f565b820191905f5260205f20905b81548152906001019060200180831161043257829003601f168201915b5050505050905090565b5f61046382610b3b565b505f828152600460205260409020546001600160a01b03166103c4565b61048b828233610b73565b5050565b6001600160a01b0382166104bd57604051633250574960e11b81525f60048201526024015b60405180910390fd5b5f6104c9838333610b80565b9050836001600160a01b0316816001600160a01b031614610517576040516364283d7b60e01b81526001600160a01b03808616600483015260248201849052821660448201526064016104b4565b50505050565b61053783838360405180602001604052805f815250610752565b505050565b5f6103c482610b3b565b5f6001600160a01b038216610570576040516322718ad960e21b81525f60048201526024016104b4565b506001600160a01b03165f9081526003602052604090205490565b610593610c08565b61059c5f610c35565b565b6060600180546103d8906117c4565b5f6105b6610c08565b6001600160a01b0386165f908152600a602052604090205460ff161561062f5760405162461bcd60e51b815260206004820152602860248201527f5365616c657249443a2077616c6c657420616c7265616479206861732061205360448201526719585b195c88125160c21b60648201526084016104b4565b600880545f918261063f836117fc565b91905055905061064f8782610c86565b61068e8187878080601f0160208091040260200160405190810160405280939291908181526020018383808284375f92019190915250610c9f92505050565b6001600160a01b0387165f908152600960209081526040808320849055600a8252808320805460ff19166001179055838352600b90915290206106d2848683611864565b505f818152600d60205260409081902080546001600160a01b0319166001600160a01b038a16908117909155905182907f6f69f8fdfbff216e8f8185e2a805752c3e497b55b54fda4e91556d97dffdc2dd9061073590889088908c908c90611946565b60405180910390a39695505050505050565b61048b338383610cee565b61075d84848461048f565b6105173385858585610db5565b600b6020525f908152604090208054610782906117c4565b80601f01602080910402602001604051908101604052809291908181526020018280546107ae906117c4565b80156107f95780601f106107d0576101008083540402835291602001916107f9565b820191905f5260205f20905b8154815290600101906020018083116107dc57829003601f168201915b505050505081565b606061080c82610b3b565b505f61082260408051602081019091525f815290565b90505f61082e84610edd565b905081515f0361083f579392505050565b80511561087157818160405160200161085992919061198e565b60405160208183030381529060405292505050919050565b61087a84610f7c565b949350505050565b61088a610c08565b6001600160a01b0385165f908152600a602052604090205460ff166109045760405162461bcd60e51b815260206004820152602a60248201527f5365616c657249443a2077616c6c657420686173206e6f205365616c657220496044820152694420746f2072656e657760b01b60648201526084016104b4565b6001600160a01b0385165f90815260096020908152604091829020548251601f87018390048302810183019093528583529161095c9183919088908890819084018382808284375f92019190915250610c9f92505050565b5f818152600b60205260409020610974838583611864565b505f818152600c6020526040812080549161098e836117fc565b9190505550856001600160a01b0316817f7b481c782d8e3f681018d57a57297c19bf5aa79e94ba94f7b175d0c5ba603e5785858989600c5f8981526020019081526020015f20546040516109e69594939291906119a2565b60405180910390a3505050505050565b6001600160a01b039182165f90815260056020908152604080832093909416825291909152205460ff1690565b6001600160a01b0381165f908152600a602052604081205460ff16610a945760405162461bcd60e51b815260206004820152602160248201527f5365616c657249443a2077616c6c657420686173206e6f205365616c657220496044820152601160fa1b60648201526084016104b4565b506001600160a01b03165f9081526009602052604090205490565b610ab7610c08565b6001600160a01b038116610ae057604051631e4fbdf760e01b81525f60048201526024016104b4565b610ae981610c35565b50565b5f6001600160e01b031982166380ac58cd60e01b1480610b1c57506001600160e01b03198216635b5e139f60e01b145b806103c457506301ffc9a760e01b6001600160e01b03198316146103c4565b5f818152600260205260408120546001600160a01b0316806103c457604051637e27328960e01b8152600481018490526024016104b4565b6105378383836001610fed565b5f828152600260205260408120546001600160a01b03168015610bf45760405162461bcd60e51b815260206004820152602660248201527f5365616c657249443a20736f756c626f756e64202d206e6f6e2d7472616e7366604482015265657261626c6560d01b60648201526084016104b4565b610bff8585856110f1565b95945050505050565b6007546001600160a01b0316331461059c5760405163118cdaa760e01b81523360048201526024016104b4565b600780546001600160a01b038381166001600160a01b0319831681179093556040519116919082907f8be0079c531659141344cd1fd0a4f28419497f9722a3daafe3b4186f6b6457e0905f90a35050565b61048b828260405180602001604052805f8152506111e3565b5f828152600660205260409020610cb682826119db565b506040518281527ff8e1a15aba9398e019f0b49df1a4fde98ee17ae345cb5f6b5e2c27f5033e8ce79060200160405180910390a15050565b6001600160a01b038316610d175760405163a9fbf51f60e01b81525f60048201526024016104b4565b6001600160a01b038216610d4957604051630b61174360e31b81526001600160a01b03831660048201526024016104b4565b6001600160a01b038381165f81815260056020908152604080832094871680845294825291829020805460ff191686151590811790915591519182527f17307eab39ab6107e8899845ad3d59bd9653f200f220920489ca2b5937696c31910160405180910390a3505050565b6001600160a01b0383163b15610ed657604051630a85bd0160e11b81526001600160a01b0384169063150b7a0290610df7908890889087908790600401611a96565b6020604051808303815f875af1925050508015610e31575060408051601f3d908101601f19168201909252610e2e91810190611ad2565b60015b610e98573d808015610e5e576040519150601f19603f3d011682016040523d82523d5f602084013e610e63565b606091505b5080515f03610e9057604051633250574960e11b81526001600160a01b03851660048201526024016104b4565b805160208201fd5b6001600160e01b03198116630a85bd0160e11b14610ed457604051633250574960e11b81526001600160a01b03851660048201526024016104b4565b505b5050505050565b5f818152600660205260409020805460609190610ef9906117c4565b80601f0160208091040260200160405190810160405280929190818152602001828054610f25906117c4565b8015610f705780601f10610f4757610100808354040283529160200191610f70565b820191905f5260205f20905b815481529060010190602001808311610f5357829003601f168201915b50505050509050919050565b6060610f8782610b3b565b505f610f9d60408051602081019091525f815290565b90505f815111610fbb5760405180602001604052805f815250610fe6565b80610fc5846111fa565b604051602001610fd692919061198e565b6040516020818303038152906040525b9392505050565b808061100157506001600160a01b03821615155b156110c2575f61101084610b3b565b90506001600160a01b0383161580159061103c5750826001600160a01b0316816001600160a01b031614155b801561104f575061104d81846109f6565b155b156110785760405163a9fbf51f60e01b81526001600160a01b03841660048201526024016104b4565b81156110c05783856001600160a01b0316826001600160a01b03167f8c5be1e5ebec7d5bd14f71427d1e84f3dd0314c0f7b2291e5b200ac8c7c3b92560405160405180910390a45b505b50505f90815260046020526040902080546001600160a01b0319166001600160a01b0392909216919091179055565b5f828152600260205260408120546001600160a01b039081169083161561111d5761111d81848661128a565b6001600160a01b03811615611157576111385f855f5f610fed565b6001600160a01b0381165f90815260036020526040902080545f190190555b6001600160a01b03851615611185576001600160a01b0385165f908152600360205260409020805460010190555b5f8481526002602052604080822080546001600160a01b0319166001600160a01b0389811691821790925591518793918516917fddf252ad1be2c89b69c2b068fc378daa952ba7f163c4a11628f55a4df523b3ef91a4949350505050565b6111ed83836112ee565b610537335f858585610db5565b60605f6112068361134f565b60010190505f8167ffffffffffffffff811115611225576112256116a2565b6040519080825280601f01601f19166020018201604052801561124f576020820181803683370190505b5090508181016020015b5f19016f181899199a1a9b1b9c1cb0b131b232b360811b600a86061a8153600a850494508461125957509392505050565b611295838383611426565b610537576001600160a01b0383166112c357604051637e27328960e01b8152600481018290526024016104b4565b60405163177e802f60e01b81526001600160a01b0383166004820152602481018290526044016104b4565b6001600160a01b03821661131757604051633250574960e11b81525f60048201526024016104b4565b5f61132383835f610b80565b90506001600160a01b03811615610537576040516339e3563760e11b81525f60048201526024016104b4565b5f8072184f03e93ff9f4daa797ed6e38ed64bf6a1f0160401b831061138d5772184f03e93ff9f4daa797ed6e38ed64bf6a1f0160401b830492506040015b6d04ee2d6d415b85acef810000000083106113b9576d04ee2d6d415b85acef8100000000830492506020015b662386f26fc1000083106113d757662386f26fc10000830492506010015b6305f5e10083106113ef576305f5e100830492506008015b612710831061140357612710830492506004015b60648310611415576064830492506002015b600a83106103c45760010192915050565b5f6001600160a01b0383161580159061087a5750826001600160a01b0316846001600160a01b0316148061145f575061145f84846109f6565b8061087a5750505f908152600460205260409020546001600160a01b03908116911614919050565b6001600160e01b031981168114610ae9575f5ffd5b5f602082840312156114ac575f5ffd5b8135610fe681611487565b5f81518084528060208401602086015e5f602082860101526020601f19601f83011685010191505092915050565b602081525f610fe660208301846114b7565b5f60208284031215611507575f5ffd5b5035919050565b80356001600160a01b0381168114611524575f5ffd5b919050565b5f5f6040838503121561153a575f5ffd5b6115438361150e565b946020939093013593505050565b5f5f5f60608486031215611563575f5ffd5b61156c8461150e565b925061157a6020850161150e565b929592945050506040919091013590565b5f6020828403121561159b575f5ffd5b610fe68261150e565b5f5f83601f8401126115b4575f5ffd5b50813567ffffffffffffffff8111156115cb575f5ffd5b6020830191508360208285010111156115e2575f5ffd5b9250929050565b5f5f5f5f5f606086880312156115fd575f5ffd5b6116068661150e565b9450602086013567ffffffffffffffff811115611621575f5ffd5b61162d888289016115a4565b909550935050604086013567ffffffffffffffff81111561164c575f5ffd5b611658888289016115a4565b969995985093965092949392505050565b5f5f6040838503121561167a575f5ffd5b6116838361150e565b915060208301358015158114611697575f5ffd5b809150509250929050565b634e487b7160e01b5f52604160045260245ffd5b5f5f5f5f608085870312156116c9575f5ffd5b6116d28561150e565b93506116e06020860161150e565b925060408501359150606085013567ffffffffffffffff811115611702575f5ffd5b8501601f81018713611712575f5ffd5b803567ffffffffffffffff81111561172c5761172c6116a2565b604051601f8201601f19908116603f0116810167ffffffffffffffff8111828210171561175b5761175b6116a2565b604052818152828201602001891015611772575f5ffd5b816020840160208301375f6020838301015280935050505092959194509250565b5f5f604083850312156117a4575f5ffd5b6117ad8361150e565b91506117bb6020840161150e565b90509250929050565b600181811c908216806117d857607f821691505b6020821081036117f657634e487b7160e01b5f52602260045260245ffd5b50919050565b5f6001820161181957634e487b7160e01b5f52601160045260245ffd5b5060010190565b601f82111561053757805f5260205f20601f840160051c810160208510156118455750805b601f840160051c820191505b81811015610ed6575f8155600101611851565b67ffffffffffffffff83111561187c5761187c6116a2565b6118908361188a83546117c4565b83611820565b5f601f8411600181146118c1575f85156118aa5750838201355b5f19600387901b1c1916600186901b178355610ed6565b5f83815260208120601f198716915b828110156118f057868501358255602094850194600190920191016118d0565b508682101561190c575f1960f88860031b161c19848701351681555b505060018560011b0183555050505050565b81835281816020850137505f828201602090810191909152601f909101601f19169091010190565b604081525f61195960408301868861191e565b828103602084015261196c81858761191e565b979650505050505050565b5f81518060208401855e5f93019283525090919050565b5f61087a61199c8386611977565b84611977565b606081525f6119b560608301878961191e565b82810360208401526119c881868861191e565b9150508260408301529695505050505050565b815167ffffffffffffffff8111156119f5576119f56116a2565b611a0981611a0384546117c4565b84611820565b6020601f821160018114611a3b575f8315611a245750848201515b5f19600385901b1c1916600184901b178455610ed6565b5f84815260208120601f198516915b82811015611a6a5787850151825560209485019460019092019101611a4a565b5084821015611a8757868401515f19600387901b60f8161c191681555b50505050600190811b01905550565b6001600160a01b03858116825284166020820152604081018390526080606082018190525f90611ac8908301846114b7565b9695505050505050565b5f60208284031215611ae2575f5ffd5b8151610fe68161148756fea264697066735822122082da6bdd366203227ea732b008425dfdcda7ea3009ce8564b3af9cdaeceaf6e264736f6c634300081c0033",
  "linkReferences": {},
  "deployedLinkReferences": {}
}