{
  "_format": "hh-sol-artifact-1",
  "contractName": "SealerID",
  "sourceName": "contracts/SealerID.sol",
  "abi": [
    {
      "inputs": [
        {
          "internalType": "address",
          "name": "initialOwner",
          "type": "address"
        }
      ],
      "stateMutability": "nonpayable",
      "type": "constructor"
    },
    {
      "inputs": [
        {
          "internalType": "address",
          "name": "sender",
          "type": "address"
        },
        {
          "internalType": "uint256",
          "name": "tokenId",
          "type": "uint256"
        },
        {
          "internalType": "address",
          "name": "owner",
          "type": "address"
        }
      ],
      "name": "ERC721IncorrectOwner",
      "type": "error"
    },
    {
      "inputs": [
        {
          "internalType": "address",
          "name": "operator",
          "type": "address"
        },
        {
          "internalType": "uint256",
          "name": "tokenId",
          "type": "uint256"
        }
      ],
      "name": "ERC721InsufficientApproval",
      "type": "error"
    },
    {
      "inputs": [
        {
          "internalType": "address",
          "name": "approver",
          "type": "address"
        }
      ],
      "name": "ERC721InvalidApprover",
      "type": "error"
    },
    {
      "inputs": [
        {
          "internalType": "address",
          "name": "operator",
          "type": "address"
        }
      ],
      "name": "ERC721InvalidOperator",
      "type": "error"
    },
    {
      "inputs": [
        {
          "internalType": "address",
          "name": "owner",
          "type": "address"
        }
      ],
      "name": "ERC721InvalidOwner",
      "type": "error"
    },
    {
      "inputs": [
        {
          "internalType": "address",
          "name": "receiver",
          "type": "address"
        }
      ],
      "name": "ERC721InvalidReceiver",
      "type": "error"
    },
    {
      "inputs": [
        {
          "internalType": "address",
          "name": "sender",
          "type": "address"
        }
      ],
      "name": "ERC721InvalidSender",
      "type": "error"
    },
    {
      "inputs": [
        {
          "internalType": "uint256",
          "name": "tokenId",
          "type": "uint256"
        }
      ],
      "name": "ERC721NonexistentToken",
      "type": "error"
    },
    {
      "inputs": [
        {
          "internalType": "address",
          "name": "owner",
          "type": "address"
        }
      ],
      "name": "OwnableInvalidOwner",
      "type": "error"
    },
    {
      "inputs": [
        {
          "internalType": "address",
          "name": "account",
          "type": "address"
        }
      ],
      "name": "OwnableUnauthorizedAccount",
      "type": "error"
    },
    {
      "anonymous": false,
      "inputs": [
        {
          "indexed": true,
          "internalType": "address",
          "name": "owner",
          "type": "address"
        },
        {
          "indexed": true,
          "internalType": "address",
          "name": "approved",
          "type": "address"
        },
        {
          "indexed": true,
          "internalType": "uint256",
          "name": "tokenId",
          "type": "uint256"
        }
      ],
      "name": "Approval",
      "type": "event"
    },
    {
      "anonymous": false,
      "inputs": [
        {
          "indexed": true,
          "internalType": "address",
          "name": "owner",
          "type": "address"
        },
        {
          "indexed": true,
          "internalType": "address",
          "name": "operator",
          "type": "address"
        },
        {
          "indexed": false,
          "internalType": "bool",
          "name": "approved",
          "type": "bool"
        }
      ],
      "name": "ApprovalForAll",
      "type": "event"
    },
    {
      "anonymous": false,
      "inputs": [
        {
          "indexed": false,
          "internalType": "uint256",
          "name": "_fromTokenId",
          "type": "uint256"
        },
        {
          "indexed": false,
          "internalType": "uint256",
          "name": "_toTokenId",
          "type": "uint256"
        }
      ],
      "name": "BatchMetadataUpdate",
      "type": "event"
    },
    {
      "anonymous": false,
      "inputs": [
        {
          "indexed": false,
          "internalType": "uint256",
          "name": "_tokenId",
          "type": "uint256"
        }
      ],
      "name": "MetadataUpdate",
      "type": "event"
    },
    {
      "anonymous": false,
      "inputs": [
        {
          "indexed": true,
          "internalType": "address",
          "name": "previousOwner",
          "type": "address"
        },
        {
          "indexed": true,
          "internalType": "address",
          "name": "newOwner",
          "type": "address"
        }
      ],
      "name": "OwnershipTransferred",
      "type": "event"
    },
    {
      "anonymous": false,
      "inputs": [
        {
          "indexed": true,
          "internalType": "uint256",
          "name": "tokenId",
          "type": "uint256"
        },
        {
          "indexed": true,
          "internalType": "address",
          "name": "recipient",
          "type": "address"
        },
        {
          "indexed": false,
          "internalType": "string",
          "name": "attestationTxHash",
          "type": "string"
        },
        {
          "indexed": false,
          "internalType": "string",
          "name": "tokenURI",
          "type": "string"
        }
      ],
      "name": "SealerIDMinted",
      "type": "event"
    },
    {
      "anonymous": false,
      "inputs": [
        {
          "indexed": true,
          "internalType": "uint256",
          "name": "tokenId",
          "type": "uint256"
        },
        {
          "indexed": true,
          "internalType": "address",
          "name": "recipient",
          "type": "address"
        },
        {
          "indexed": false,
          "internalType": "string",
          "name": "newAttestationTxHash",
          "type": "string"
        },
        {
          "indexed": false,
          "internalType": "string",
          "name": "newTokenURI",
          "type": "string"
        },
        {
          "indexed": false,
          "internalType": "uint256",
          "name": "renewalCount",
          "type": "uint256"
        }
      ],
      "name": "SealerIDRenewed",
      "type": "event"
    },
    {
      "anonymous": false,
      "inputs": [
        {
          "indexed": true,
          "internalType": "address",
          "name": "from",
          "type": "address"
        },
        {
          "indexed": true,
          "internalType": "address",
          "name": "to",
          "type": "address"
        },
        {
          "indexed": true,
          "internalType": "uint256",
          "name": "tokenId",
          "type": "uint256"
        }
      ],
      "name": "Transfer",
      "type": "event"
    },
    {
      "inputs": [
        {
          "internalType": "address",
          "name": "to",
          "type": "address"
        },
        {
          "internalType": "uint256",
          "name": "tokenId",
          "type": "uint256"
        }
      ],
      "name": "approve",
      "outputs": [],
      "stateMutability": "nonpayable",
      "type": "function"
    },
    {
      "inputs": [
        {
          "internalType": "uint256",
          "name": "",
          "type": "uint256"
        }
      ],
      "name": "attestationTxHash",
      "outputs": [
        {
          "internalType": "string",
          "name": "",
          "type": "string"
        }
      ],
      "stateMutability": "view",
      "type": "function"
    },
    {
      "inputs": [
        {
          "internalType": "address",
          "name": "owner",
          "type": "address"
        }
      ],
      "name": "balanceOf",
      "outputs": [
        {
          "internalType": "uint256",
          "name": "",
          "type": "uint256"
        }
      ],
      "stateMutability": "view",
      "type": "function"
    },
    {
      "inputs": [
        {
          "internalType": "uint256",
          "name": "tokenId",
          "type": "uint256"
        }
      ],
      "name": "getApproved",
      "outputs": [
        {
          "internalType": "address",
          "name": "",
          "type": "address"
        }
      ],
      "stateMutability": "view",
      "type": "function"
    },
    {
      "inputs": [
        {
          "internalType": "address",
          "name": "wallet",
          "type": "address"
        }
      ],
      "name": "getTokenId",
      "outputs": [
        {
          "internalType": "uint256",
          "name": "",
          "type": "uint256"
        }
      ],
      "stateMutability": "view",
      "type": "function"
    },
    {
      "inputs": [
        {
          "internalType": "address",
          "name": "",
          "type": "address"
        }
      ],
      "name": "hasSID",
      "outputs": [
        {
          "internalType": "bool",
          "name": "",
          "type": "bool"
        }
      ],
      "stateMutability": "view",
      "type": "function"
    },
    {
      "inputs": [
        {
          "internalType": "address",
          "name": "owner",
          "type": "address"
        },
        {
          "internalType": "address",
          "name": "operator",
          "type": "address"
        }
      ],
      "name": "isApprovedForAll",
      "outputs": [
        {
          "internalType": "bool",
          "name": "",
          "type": "bool"
        }
      ],
      "stateMutability": "view",
      "type": "function"
    },
    {
      "inputs": [
        {
          "internalType": "address",
          "name": "recipient",
          "type": "address"
        },
        {
          "internalType": "string",
          "name": "uri",
          "type": "string"
        },
        {
          "internalType": "string",
          "name": "_attestationTx",
          "type": "string"
        }
      ],
      "name": "mint",
      "outputs": [
        {
          "internalType": "uint256",
          "name": "",
          "type": "uint256"
        }
      ],
      "stateMutability": "nonpayable",
      "type": "function"
    },
    {
      "inputs": [],
      "name": "name",
      "outputs": [
        {
          "internalType": "string",
          "name": "",
          "type": "string"
        }
      ],
      "stateMutability": "view",
      "type": "function"
    },
    {
      "inputs": [
        {
          "internalType": "uint256",
          "name": "",
          "type": "uint256"
        }
      ],
      "name": "originalRecipient",
      "outputs": [
        {
          "internalType": "address",
          "name": "",
          "type": "address"
        }
      ],
      "stateMutability": "view",
      "type": "function"
    },
    {
      "inputs": [],
      "name": "owner",
      "outputs": [
        {
          "internalType": "address",
          "name": "",
          "type": "address"
        }
      ],
      "stateMutability": "view",
      "type": "function"
    },
    {
      "inputs": [
        {
          "internalType": "uint256",
          "name": "tokenId",
          "type": "uint256"
        }
      ],
      "name": "ownerOf",
      "outputs": [
        {
          "internalType": "address",
          "name": "",
          "type": "address"
        }
      ],
      "stateMutability": "view",
      "type": "function"
    },
    {
      "inputs": [
        {
          "internalType": "address",
          "name": "recipient",
          "type": "address"
        },
        {
          "internalType": "string",
          "name": "newUri",
          "type": "string"
        },
        {
          "internalType": "string",
          "name": "newAttestationTx",
          "type": "string"
        }
      ],
      "name": "renew",
      "outputs": [],
      "stateMutability": "nonpayable",
      "type": "function"
    },
    {
      "inputs": [
        {
          "internalType": "uint256",
          "name": "",
          "type": "uint256"
        }
      ],
      "name": "renewalCount",
      "outputs": [
        {
          "internalType": "uint256",
          "name": "",
          "type": "uint256"
        }
      ],
      "stateMutability": "view",
      "type": "function"
    },
    {
      "inputs": [],
      "name": "renounceOwnership",
      "outputs": [],
      "stateMutability": "nonpayable",
      "type": "function"
    },
    {
      "inputs": [
        {
          "internalType": "address",
          "name": "from",
          "type": "address"
        },
        {
          "internalType": "address",
          "name": "to",
          "type": "address"
        },
        {
          "internalType": "uint256",
          "name": "tokenId",
          "type": "uint256"
        }
      ],
      "name": "safeTransferFrom",
      "outputs": [],
      "stateMutability": "nonpayable",
      "type": "function"
    },
    {
      "inputs": [
        {
          "internalType": "address",
          "name": "from",
          "type": "address"
        },
        {
          "internalType": "address",
          "name": "to",
          "type": "address"
        },
        {
          "internalType": "uint256",
          "name": "tokenId",
          "type": "uint256"
        },
        {
          "internalType": "bytes",
          "name": "data",
          "type": "bytes"
        }
      ],
      "name": "safeTransferFrom",
      "outputs": [],
      "stateMutability": "nonpayable",
      "type": "function"
    },
    {
      "inputs": [
        {
          "internalType": "address",
          "name": "operator",
          "type": "address"
        },
        {
          "internalType": "bool",
          "name": "approved",
          "type": "bool"
        }
      ],
      "name": "setApprovalForAll",
      "outputs": [],
      "stateMutability": "nonpayable",
      "type": "function"
    },
    {
      "inputs": [
        {
          "internalType": "bytes4",
          "name": "interfaceId",
          "type": "bytes4"
        }
      ],
      "name": "supportsInterface",
      "outputs": [
        {
          "internalType": "bool",
          "name": "",
          "type": "bool"
        }
      ],
      "stateMutability": "view",
      "type": "function"
    },
    {
      "inputs": [],
      "name": "symbol",
      "outputs": [
        {
          "internalType": "string",
          "name": "",
          "type": "string"
        }
      ],
      "stateMutability": "view",
      "type": "function"
    },
    {
      "inputs": [
        {
          "internalType": "uint256",
          "name": "tokenId",
          "type": "uint256"
        }
      ],
      "name": "tokenURI",
      "outputs": [
        {
          "internalType": "string",
          "name": "",
          "type": "string"
        }
      ],
      "stateMutability": "view",
      "type": "function"
    },
    {
      "inputs": [],
      "name": "totalSupply",
      "outputs": [
        {
          "internalType": "uint256",
          "name": "",
          "type": "uint256"
        }
      ],
      "stateMutability": "view",
      "type": "function"
    },
    {
      "inputs": [
        {
          "internalType": "address",
          "name": "from",
          "type": "address"
        },
        {
          "internalType": "address",
          "name": "to",
          "type": "address"
        },
        {
          "internalType": "uint256",
          "name": "tokenId",
          "type": "uint256"
        }
      ],
      "name": "transferFrom",
      "outputs": [],
      "stateMutability": "nonpayable",
      "type": "function"
    },
    {
      "inputs": [
        {
          "internalType": "address",
          "name": "newOwner",
          "type": "address"
        }
      ],
      "name": "transferOwnership",
      "outputs": [],
      "stateMutability": "nonpayable",
      "type": "function"
    },
    {
      "inputs": [
        {
          "internalType": "address",
          "name": "",
          "type": "address"
        }
      ],
      "name": "walletToTokenId",
      "outputs": [
        {
          "internalType": "uint256",
          "name": "",
          "type": "uint256"
        }
      ],
      "stateMutability": "view",
      "type": "function"
    }
  ],
  "bytecode": "0x60806040523461037f57611cae6020813803918261001c81610383565b93849283398101031261037f57516001600160a01b0381169081900361037f576100466040610383565b90600982526814d9585b195c88125160ba1b60208301526100676040610383565b600381526214d25160ea1b602082015282519091906001600160401b038111610293575f54600181811c91168015610375575b602082101461027557601f8111610313575b506020601f82116001146102b257819293945f926102a7575b50508160011b915f199060031b1c1916175f555b81516001600160401b03811161029357600154600181811c91168015610289575b602082101461027557601f8111610212575b50602092601f82116001146101b157928192935f926101a6575b50508160011b915f199060031b1c1916176001555b801561019357600780546001600160a01b03198116831790915560405191906001600160a01b03167f8be0079c531659141344cd1fd0a4f28419497f9722a3daafe3b4186f6b6457e05f80a361190590816103a98239f35b631e4fbdf760e01b5f525f60045260245ffd5b015190505f80610126565b601f1982169360015f52805f20915f5b8681106101fa57508360019596106101e2575b505050811b0160015561013b565b01515f1960f88460031b161c191690555f80806101d4565b919260206001819286850151815501940192016101c1565b60015f527fb10e2d527612073b26eecdfd717e6a320cf44b4afac2b0732d9fcbe2b7fa0cf6601f830160051c8101916020841061026b575b601f0160051c01905b818110610260575061010c565b5f8155600101610253565b909150819061024a565b634e487b7160e01b5f52602260045260245ffd5b90607f16906100fa565b634e487b7160e01b5f52604160045260245ffd5b015190505f806100c5565b601f198216905f8052805f20915f5b8181106102fb575095836001959697106102e3575b505050811b015f556100d9565b01515f1960f88460031b161c191690555f80806102d6565b9192602060018192868b0151815501940192016102c1565b5f80527f290decd9548b62a8d60345a988386fc84ba6bc95484008f6362f93160ef3e563601f830160051c8101916020841061036b575b601f0160051c01905b81811061036057506100ac565b5f8155600101610353565b909150819061034a565b90607f169061009a565b5f80fd5b6040519190601f01601f191682016001600160401b038111838210176102935760405256fe6080806040526004361015610012575f80fd5b5f3560e01c90816301ffc9a714610feb5750806306fdde0314610f49578063081812fc14610f0d578063095ea7b314610e2357806318160ddd14610e0657806323b872dd14610def57806342842e0e14610dc05780636352211e14610d905780636b9bb6f814610d5357806370a0823114610d02578063715018a614610ca75780638da5cb5b14610c7f57806395d89b4114610bb557806399071190146106fe5780639c2806c7146106c6578063a22cb46514610612578063b88d4fde146105a4578063bb2890d21461057a578063bfe0b25d14610550578063c87b56dd14610519578063da9fb193146102de578063e764dccc146102ac578063e985e9c514610255578063f1537686146101b95763f2fde38b1461012f575f80fd5b346101b55760203660031901126101b557610148611094565b61015061164a565b6001600160a01b031680156101a257600780546001600160a01b0319811683179091556001600160a01b03167f8be0079c531659141344cd1fd0a4f28419497f9722a3daafe3b4186f6b6457e05f80a3005b631e4fbdf760e01b5f525f60045260245ffd5b5f80fd5b346101b55760203660031901126101b5576001600160a01b036101da611094565b16805f52600a60205260ff60405f20541615610206575f526009602052602060405f2054604051908152f35b60405162461bcd60e51b815260206004820152602160248201527f5365616c657249443a2077616c6c657420686173206e6f205365616c657220496044820152601160fa1b6064820152608490fd5b346101b55760403660031901126101b55761026e611094565b6102766110aa565b9060018060a01b03165f52600560205260405f209060018060a01b03165f52602052602060ff60405f2054166040519015158152f35b346101b55760203660031901126101b5576004355f52600d602052602060018060a01b0360405f205416604051908152f35b346101b5576102ec36611128565b92936102f661164a565b6001600160a01b03165f818152600a602052604090205490939060ff16156104c157835f52600960205260405f20549261033a6103343683896111cd565b85611671565b835f52600b60205260405f209567ffffffffffffffff83116104ad5761036a836103648954611203565b896114f4565b5f96601f8411600114610423579061040d916103bf85807f7b481c782d8e3f681018d57a57297c19bf5aa79e94ba94f7b175d0c5ba603e57999a9b5f91610418575b508160011b915f199060031b1c19161790565b90555b865f52600c60205260405f206103d881546114d2565b9055865f52600c60205260405f2054926103ff604051968796606088526060880191611543565b918583036020870152611543565b9060408301520390a3005b90508801358c6103ac565b601f19841697815f5260205f20985f5b81811061049557509861040d939291867f7b481c782d8e3f681018d57a57297c19bf5aa79e94ba94f7b175d0c5ba603e57999a9b1061047c575b5050600185811b0190556103c2565b8701355f19600388901b60f8161c19169055898061046d565b878301358b556001909a019960209283019201610433565b634e487b7160e01b5f52604160045260245ffd5b60405162461bcd60e51b815260206004820152602a60248201527f5365616c657249443a2077616c6c657420686173206e6f205365616c657220496044820152694420746f2072656e657760b01b6064820152608490fd5b346101b55760203660031901126101b55761054c610538600435611563565b604051918291602083526020830190611070565b0390f35b346101b55760203660031901126101b5576004355f52600b60205261054c61053860405f2061123b565b346101b55760203660031901126101b5576004355f52600c602052602060405f2054604051908152f35b346101b55760803660031901126101b5576105bd611094565b6105c56110aa565b906044356064359267ffffffffffffffff84116101b557366023850112156101b5576105fe6106109436906024816004013591016111cd565b9261060a8383836112db565b33611799565b005b346101b55760403660031901126101b55761062b611094565b602435908115158092036101b55733156106b3576001600160a01b03169081156106a057335f52600560205260405f20825f5260205260405f2060ff1981541660ff83161790556040519081527f17307eab39ab6107e8899845ad3d59bd9653f200f220920489ca2b5937696c3160203392a3005b50630b61174360e31b5f5260045260245ffd5b63a9fbf51f60e01b5f525f60045260245ffd5b346101b55760203660031901126101b5576001600160a01b036106e7611094565b165f526009602052602060405f2054604051908152f35b346101b55761070c36611128565b9261071892919261164a565b6001600160a01b0385165f818152600a602052604090205490939060ff16610b5f5760085494610747866114d2565b60085560405160209761075a898361118f565b5f82528615610b4c575f88815260028a5260409020546001600160a01b0316610af8575f88815260028a5260409020546001600160a01b03168015159081610ac7575b885f5260038b5260405f2060018154019055895f5260028b5260405f20896001600160601b0360a01b8254161790558989827fddf252ad1be2c89b69c2b068fc378daa952ba7f163c4a11628f55a4df523b3ef5f80a450610ab4573b6109a0575b5061081361080d3686866111cd565b87611671565b845f52600987528560405f2055845f52600a875260405f20600160ff19825416179055855f52600b875260405f209267ffffffffffffffff82116104ad5783610867836108618a9754611203565b836114f4565b5f601f841160011461091457956108fe92916108ba85807f6f69f8fdfbff216e8f8185e2a805752c3e497b55b54fda4e91556d97dffdc2dd999a5f9161090957508160011b915f199060031b1c19161790565b90555b865f52600d8a5260405f20886001600160601b0360a01b8254161790556108f1604051958695604087526040870191611543565b918483038b860152611543565b0390a3604051908152f35b90508801358e6103ac565b601f19841690825f528a5f20915f5b8c828210610987575050916108fe949391867f6f69f8fdfbff216e8f8185e2a805752c3e497b55b54fda4e91556d97dffdc2dd999a941061096e575b5050600185811b0190556108bd565b8701355f19600388901b60f8161c191690558b8061095f565b8884013585558c99506001909401939283019201610923565b876109dd916040999897995180938192630a85bd0160e11b83523360048401525f60248401528a6044840152608060648401526084830190611070565b03815f8c5af15f9181610a74575b50610a405787873d15610a38573d90610a03826111b1565b91610a11604051938461118f565b82523d5f8284013e5b81519182610a355783633250574960e11b5f5260045260245ffd5b01fd5b606090610a1a565b959694956001600160e01b03191663757a42ff60e11b01610a6157876107fe565b84633250574960e11b5f5260045260245ffd5b9091508781813d8311610aad575b610a8c818361118f565b810103126101b557516001600160e01b0319811681036101b55790896109eb565b503d610a82565b6339e3563760e11b5f525f60045260245ffd5b5f8a81526004602052604080822080546001600160a01b031916905582825260038d52902080545f1901905561079d565b60405162461bcd60e51b8152600481018a9052602660248201527f5365616c657249443a20736f756c626f756e64202d206e6f6e2d7472616e7366604482015265657261626c6560d01b6064820152608490fd5b633250574960e11b5f525f60045260245ffd5b60405162461bcd60e51b815260206004820152602860248201527f5365616c657249443a2077616c6c657420616c7265616479206861732061205360448201526719585b195c88125160c21b6064820152608490fd5b346101b5575f3660031901126101b5576040515f600154610bd581611203565b8084529060018116908115610c5b5750600114610bfd575b61054c836105388185038261118f565b60015f9081527fb10e2d527612073b26eecdfd717e6a320cf44b4afac2b0732d9fcbe2b7fa0cf6939250905b808210610c4157509091508101602001610538610bed565b919260018160209254838588010152019101909291610c29565b60ff191660208086019190915291151560051b840190910191506105389050610bed565b346101b5575f3660031901126101b5576007546040516001600160a01b039091168152602090f35b346101b5575f3660031901126101b557610cbf61164a565b600780546001600160a01b031981169091555f906001600160a01b03167f8be0079c531659141344cd1fd0a4f28419497f9722a3daafe3b4186f6b6457e08280a3005b346101b55760203660031901126101b5576001600160a01b03610d23611094565b168015610d40575f526003602052602060405f2054604051908152f35b6322718ad960e21b5f525f60045260245ffd5b346101b55760203660031901126101b5576001600160a01b03610d74611094565b165f52600a602052602060ff60405f2054166040519015158152f35b346101b55760203660031901126101b5576020610dae600435611616565b6040516001600160a01b039091168152f35b346101b557610610610dd1366110c0565b9060405192610de160208561118f565b5f845261060a8383836112db565b346101b557610610610e00366110c0565b916112db565b346101b5575f3660031901126101b5576020600854604051908152f35b346101b55760403660031901126101b557610e3c611094565b602435610e4881611616565b33151580610efa575b80610ecd575b610eba5781906001600160a01b0384811691167f8c5be1e5ebec7d5bd14f71427d1e84f3dd0314c0f7b2291e5b200ac8c7c3b9255f80a45f90815260046020526040902080546001600160a01b0319166001600160a01b03909216919091179055005b63a9fbf51f60e01b5f523360045260245ffd5b506001600160a01b0381165f90815260056020908152604080832033845290915290205460ff1615610e57565b506001600160a01b038116331415610e51565b346101b55760203660031901126101b557600435610f2a81611616565b505f526004602052602060018060a01b0360405f205416604051908152f35b346101b5575f3660031901126101b5576040515f5f54610f6881611203565b8084529060018116908115610c5b5750600114610f8f5761054c836105388185038261118f565b5f8080527f290decd9548b62a8d60345a988386fc84ba6bc95484008f6362f93160ef3e563939250905b808210610fd157509091508101602001610538610bed565b919260018160209254838588010152019101909291610fb9565b346101b55760203660031901126101b5576004359063ffffffff60e01b82168092036101b557602091632483248360e11b811490811561102d575b5015158152f35b6380ac58cd60e01b81149150811561105f575b811561104e575b5083611026565b6301ffc9a760e01b14905083611047565b635b5e139f60e01b81149150611040565b805180835260209291819084018484015e5f828201840152601f01601f1916010190565b600435906001600160a01b03821682036101b557565b602435906001600160a01b03821682036101b557565b60609060031901126101b5576004356001600160a01b03811681036101b557906024356001600160a01b03811681036101b5579060443590565b9181601f840112156101b55782359167ffffffffffffffff83116101b557602083818601950101116101b557565b9060606003198301126101b5576004356001600160a01b03811681036101b5579160243567ffffffffffffffff81116101b55781611168916004016110fa565b929092916044359067ffffffffffffffff82116101b55761118b916004016110fa565b9091565b90601f8019910116810190811067ffffffffffffffff8211176104ad57604052565b67ffffffffffffffff81116104ad57601f01601f191660200190565b9291926111d9826111b1565b916111e7604051938461118f565b8294818452818301116101b5578281602093845f960137010152565b90600182811c92168015611231575b602083101461121d57565b634e487b7160e01b5f52602260045260245ffd5b91607f1691611212565b9060405191825f82549261124e84611203565b80845293600181169081156112b95750600114611275575b506112739250038361118f565b565b90505f9291925260205f20905f915b81831061129d575050906020611273928201015f611266565b6020919350806001915483858901015201910190918492611284565b90506020925061127394915060ff191682840152151560051b8201015f611266565b6001600160a01b0390911691908215610b4c575f828152600260205260409020546001600160a01b031661147e575f828152600260205260409020546001600160a01b0316928290331515806113e9575b50846113b6575b805f52600360205260405f2060018154019055815f52600260205260405f20816001600160601b0360a01b825416179055847fddf252ad1be2c89b69c2b068fc378daa952ba7f163c4a11628f55a4df523b3ef5f80a46001600160a01b031680830361139e57505050565b6364283d7b60e01b5f5260045260245260445260645ffd5b5f82815260046020526040902080546001600160a01b0319169055845f52600360205260405f205f198154019055611333565b9091508061142d575b156113ff5782905f61132c565b828461141757637e27328960e01b5f5260045260245ffd5b63177e802f60e01b5f523360045260245260445ffd5b50338414801561145c575b806113f257505f838152600460205260409020546001600160a01b031633146113f2565b505f84815260056020908152604080832033845290915290205460ff16611438565b60405162461bcd60e51b815260206004820152602660248201527f5365616c657249443a20736f756c626f756e64202d206e6f6e2d7472616e7366604482015265657261626c6560d01b6064820152608490fd5b5f1981146114e05760010190565b634e487b7160e01b5f52601160045260245ffd5b601f821161150157505050565b5f5260205f20906020601f840160051c83019310611539575b601f0160051c01905b81811061152e575050565b5f8155600101611523565b909150819061151a565b908060209392818452848401375f828201840152601f01601f1916010190565b61156c81611616565b5060209060405161157d838261118f565b5f8152815f526006835261159360405f2061123b565b81511561160f57808491516115d1575050506115ae90611616565b505f6040516115bd838261118f565b526115cb604051918261118f565b5f815290565b61160c935081906040519584879551918291018487015e8401908282015f8152815193849201905e01015f815203601f19810183528261118f565b90565b9250505090565b5f818152600260205260409020546001600160a01b0316908115611638575090565b637e27328960e01b5f5260045260245ffd5b6007546001600160a01b0316330361165e57565b63118cdaa760e01b5f523360045260245ffd5b919091805f52600660205260405f20835167ffffffffffffffff81116104ad576116a58161169f8454611203565b846114f4565b6020601f8211600114611711578160209493926116fa927ff8e1a15aba9398e019f0b49df1a4fde98ee17ae345cb5f6b5e2c27f5033e8ce797985f92611706575b50508160011b915f199060031b1c19161790565b90555b604051908152a1565b015190505f806116e6565b601f19821695835f52815f20965f5b818110611781575096600192849260209796957ff8e1a15aba9398e019f0b49df1a4fde98ee17ae345cb5f6b5e2c27f5033e8ce7999a10611769575b505050811b0190556116fd565b01515f1960f88460031b161c191690555f808061175c565b83830151895560019098019760209384019301611720565b823b6117a7575b5050505050565b604051630a85bd0160e11b81526001600160a01b0391821660048201529181166024830152604482019390935260806064820152911691602090829081906117f3906084830190611070565b03815f865af15f918161188a575b5061185657503d1561184f573d611817816111b1565b90611825604051928361118f565b81523d5f602083013e5b8051908161184a5782633250574960e11b5f5260045260245ffd5b602001fd5b606061182f565b6001600160e01b03191663757a42ff60e11b0161187857505f808080806117a0565b633250574960e11b5f5260045260245ffd5b9091506020813d6020116118c7575b816118a66020938361118f565b810103126101b557516001600160e01b0319811681036101b557905f611801565b3d915061189956fea2646970667358221220a9d760ba11ce63718e5d42a639d050b733ce3afda6dac625160de7d79f8a810e64736f6c634300081c0033",
  "linkReferences": {},
  "deployedLinkReferences": {}
}